:04000000FEEFFFF020
:1040000000EA4D00284B00344D005A40005A43004E
:104010006A4400BC4200A64D00484E00444E007C5D
:104020004B00E24D00F24D008C4D00DA4D009A4DF0
:1040300000C44500E444007E4D00202020202020C4
:1040400020202020202020202020005354414720E1
:104050003131005355465354000063EC26F00009FB
:10406000D8B435EF20F037EF20F073EF20F044EFB5
:1040700020F0D3EC26F0BCEF20F024EC27F0BCEFCE
:1040800020F0000EBCEF20F019C536F51AC537F543
:1040900021EE0AF102D857EF20F00500FA6EDE504B
:1040A000FD6EDE50FE6EDE50FF6EFA501200386E6E
:1040B000396A3950000AD8B460EF20F041EF20F09F
:1040C0003850010AD8B441EF20F0030AD8B439EFD0
:1040D00020F0010AD8B43DEF20F0070AD8B441EF30
:1040E00020F041EF20F058EC26F00009D8B47BEF27
:1040F00020F07DEF20F0BBEF20F02A50030B0009E9
:10410000D8B485EF20F087EF20F093EF20F0010E78
:10411000386E2A50030B396E3850395E2A503918E0
:10412000FC0B39182A6E24C5D9F425C5DAF4DF5002
:104130003C6E244A252A2606D8A02706265027109A
:10414000D8A4A5EF20F0A7EF20F0AFEF20F035ECDA
:1041500022F0386E38503A6E3B6AB3EF20F0000E12
:104160003B6E030E3A6E3AC53DF53C50FDEC26F031
:104170003D50BCEF20F0030E1200356E35380F0BAA
:104180000F0B366E35500F0B376E2F50D8A4CBEF78
:1041900020F0CFEF20F0306A302AD0EF20F0306AE4
:1041A0003638F00B30100409316E2F50D8A4DBEFF5
:1041B00020F0DFEF20F0306A302AE0EF20F0306AA4
:1041C0003638F00B3010326E2F50D8A4EAEF20F0C2
:1041D000EEEF20F0306A302AEFEF20F0306A373807
:1041E000F00B30100409336E2F50D8A4FAEF20F0F2
:1041F000FEEF20F0306A302AFFEF20F0306A3738C7
:10420000F00B3010346E310E2B6E050E2C6E000E3E
:104210002E6E040E2D6EF5EC25F012002B6E010EA5
:104220002C6E2AB616EF21F018EF21F05CEF21F08A
:104230002BC523F52A942A86FC0E2A160F0E286E0B
:10424000010E226EF40E216E2A88500E016E4E0E63
:10425000026E000E036E000E136E000E146E500EF2
:10426000046E4E0E056E000E066E000E156E000EEC
:10427000166E500E076E4E0E086E000E096E000E82
:10428000176E000E186E500E0A6E4E0E0B6E000E5C
:104290000C6E000E196E000E1A6E4C0E0D6E4E0E48
:1042A0000E6E000E0F6E000E1B6E000E1C6E1FECCD
:1042B00027F0E4EC25F02C6A2C5012002A887FEFBE
:1042C00021F010EC27F0080EACEF21F010EC27F0F5
:1042D000070EACEF21F02628D9EC26F0040EACEF47
:1042E00021F0070E2818D8B478EF21F07AEF21F0EA
:1042F0007CEF21F013EC27F00F0EACEF21F013C58B
:1043000036F514C537F502D890EF21F00500FA6EA6
:104310000150FD6E0250FE6E0350FF6EFA50120007
:10432000386E396A3950000AD8B499EF21F071EF2C
:1043300021F03850010AD8B471EF21F0030AD8B443
:1043400066EF21F0010AD8B461EF21F0070AD8B472
:104350006BEF21F071EF21F012006EEC26F00009F6
:10436000D8A4B5EF21F0B7EF21F0BAEF21F0040E99
:10437000F4EF21F02A50030B0009D8B4C2EF21F06A
:10438000C4EF21F0D0EF21F0010E3A6E2A50030B5A
:104390003B6E3A503B5E2A503B18FC0B3B182A6E92
:1043A0002606D8A0270626502710D8B4DAEF21F029
:1043B000DCEF21F0E7EF21F00DEC27F024C5D9F474
:1043C00025C5DAF4DF6E244A252AB7EF21F05EEC2A
:1043D00021F03C6E0DEC27F024C5D9F425C5DAF4A4
:1043E000DF6E244A252A3C501200306E2B502C10D0
:1043F0002D10D8B4FEEF21F000EF22F01CEF22F0D8
:104400003050030D010EF324D96E050EF420DA6E40
:104410002BC5DEF42CC5DEF42DC5DEF43050020DC4
:10442000130EF324D96E050EF420DA6E2EC5DEF4D9
:104430002FC5DDF434EF22F03050030D010EF324CC
:10444000D96E050EF420DA6E500EDE6E4E0EDE6E64
:10445000000EDE6E3050020D130EF324D96E050EE1
:10446000F420DA6EDE6ADD6A12002A8848EF22F054
:1044700010EC27F0070E71EF22F02628D9EC26F079
:10448000030E71EF22F013EC27F00A0E71EF22F009
:1044900013C536F514C537F502D859EF22F00500DB
:1044A000FA6E0150FD6E0250FE6E0350FF6EFA5020
:1044B0001200386E396A3950000AD8B462EF22F01F
:1044C00043EF22F03850010AD8B443EF22F0030A38
:1044D000D8B438EF22F0060AD8B43DEF22F043EF0B
:1044E00022F012001FEC27F0020E296E84EF22F05A
:1044F000D3EC26F0ABEF22F024EC27F0ABEF22F068
:10450000CDEC26F0ABEF22F015C536F516C537F524
:1045100021EE04F102D897EF22F00500FA6EDE508A
:10452000FD6EDE50FE6EDE50FF6EFA501200386EE9
:10453000396A3950000AD8B4A0EF22F080EF22F097
:104540003850020AD8B478EF22F0010AD8B47CEFD0
:1045500022F080EF22F01200030EB6EC24F0210EC0
:10456000446E760EE82EFED7442EFCD700D0030E04
:10457000B6EC24F0040E456ECF0E446E020EE82E0B
:10458000FED7442EFCD7452EFAD7020EB6EC24F007
:10459000000E416E280ED2EC25F0000E416E0C0E7E
:1045A000D2EC25F0000E416E010ED2EC25F0000E8B
:1045B000416E020ED2EC25F0000E416E060ED2ECDA
:1045C00025F01200FC0E2A16020E296E2A94F0EF36
:1045D00022F022EC27F017EF23F00F0E17EF23F055
:1045E00017C536F518C537F521EE07F102D803EFE8
:1045F00023F00500FA6EDE50FD6EDE50FE6EDE50DA
:10460000FF6EFA501200386E396A3950000AD8B479
:104610000CEF23F0EDEF22F03850020AD8B4E9EFA6
:1046200022F0010AD8B4E9EF22F0EDEF22F01200F7
:10463000C26AC16ABE6ABF6AC06A070ECA6EC6682D
:10464000C768E70EC86EC96804011869E70E106FE5
:104650000869070E206F0069196B216B096B016BEC
:10466000116B226B026B0A6B180E126F1A6B0369C7
:104670000B6913691B69070E236F04690C691469C0
:104680001C690F0E246F140E0201706F370E146F29
:10469000380E156F130E716F1200E2EC23F02A50E2
:1046A000030B0009D8B457EF23F059EF23F065EF5F
:1046B00023F063EC26F00009D8B461EF23F063EF38
:1046C00023F065EF23F0100E286E2850030DF350F1
:1046D000010F3E6E3EC5F6F4400EF76E000EF86E0A
:1046E00002D880EF23F00500FA6E0900F550FD6E48
:1046F0000900F550FE6E0900F550FF6EFA501200E9
:10470000286E12009BEF23F0010E416E43C5F6F4B4
:1047100044C5F7F4000EF86E3F0EF76403D00800AE
:10472000F55005D0F6C4E9F4F7C4EAF4EF50D2EC42
:1047300025F0434A442A43C5F6F444C5F7F4000E75
:10474000F86E3F0EF76403D00800F55005D0F6C4AC
:10475000E9F4F7C4EAF4EF500009D8A4B2EF23F06B
:10476000B4EF23F084EF23F01200B5A2BAEF23F0E8
:10477000BCEF23F0BEEF23F0E1EF23F0B5A0C3EFD1
:1047800023F0C5EF23F0C7EF23F0E1EF23F00201A0
:104790009AA5CDEF23F0CFEF23F0D1EF23F0E1EF97
:1047A00023F09AAFD6EF23F0D8EF23F0DAEF23F01F
:1047B000E1EF23F097A9DFEF23F0E1EF23F0B5EF6E
:1047C00023F012008FEC26F00009D8B4EAEF23F0B2
:1047D000ECEF23F0F0EF23F01CEC27F00AEF24F0CD
:1047E00079EC26F00009D8B4F8EF23F0FAEF23F0C3
:1047F000FEEF23F016EC27F00AEF24F084EC26F00D
:104800000009D8B406EF24F008EF24F00AEF24F0F2
:1048100019EC27F012003F6E010E406E2AB413EF20
:1048200024F015EF24F02EEF24F02A84406A26505D
:10483000D9EC26F03F50D8B420EF24F022EF24F03A
:1048400028EF24F0040E286E94EC25F02CEF24F0D1
:10485000030E286E9AEC26F016EC26F0405012005B
:10486000ADEC26F0ACEC22F040EC26F0060E436EE8
:10487000000E98EC24F0530E436E4350D8A4400E23
:10488000446E82EC23F0050E436E010E98EC24F08A
:104890004B0E436E4350D8A4400E446E82EC23F07E
:1048A00050EF24F0FEEFFFF020EE02F03650D92654
:1048B0003750DA22DEC42BF5DDC42CF536C5D9F429
:1048C00037C5DAF4DEC42DF5DDC42EF5F5EC25F0A0
:1048D000000E316E000E326E000E336E000E346E1E
:1048E000000E356E24EC26F0020E120020EE02F0CF
:1048F0003650D9263750DA22DEC42BF5DDC42CF52C
:1049000036C5D9F437C5DAF4DEC42DF5DDC42EF58D
:10491000F5EC25F0000E316E000E326E000E336E97
:10492000000E346E000E356E24EC26F0020E1200DE
:10493000446E4450D8B49FEF24F0A1EF24F0A7EFC9
:1049400024F0000E466EC00E456EABEF24F0000E54
:10495000466E800E456E45C547F543504726000E0E
:10496000416E47508009D2EC25F01200436E433867
:10497000F00B0409416E4338F00B426E380E0EEC1A
:1049800021F0410E2B6E050E2C6E000E2E6E020EC7
:104990002D6EF5EC25F0E9EC26F0A9EC25F0530E90
:1049A000E82EFED70000120036C52BF537C52CF5D2
:1049B000000E2E6E010E2D6EF5EC25F0000E316E00
:1049C000000E326E000E336E000E346E000E356E29
:1049D00024EC26F0040E120036C52BF537C52CF555
:1049E000000E2E6E020E2D6EF5EC25F0000E316ECF
:1049F000000E326E000E336E000E346E000E356EF9
:104A000024EC26F0020E120036C52BF537C52CF526
:104A1000000E2E6E010E2D6EF5EC25F0000E316E9F
:104A2000000E326E000E336E000E346E000E356EC8
:104A300024EC26F0020E120036C52BF537C52CF5F6
:104A4000000E2E6E020E2D6EF5EC25F0000E316E6E
:104A5000000E326E000E336E000E346E000E356E98
:104A600024EC26F0040E120036C52BF537C52CF5C4
:104A7000000E2E6E020E2D6EF5EC25F0000E316E3E
:104A8000000E326E000E336E000E346E000E356E68
:104A900024EC26F0020E120036C52BF537C52CF596
:104AA000000E2E6E010E2D6EF5EC25F0000E316E0F
:104AB000000E326E000E336E000E346E000E356E38
:104AC00024EC26F0020E120036C52BF537C52CF566
:104AD000000E2E6E010E2D6EF5EC25F0000E316EDF
:104AE000000E326E000E336E000E346E000E356E08
:104AF00024EC26F0040E120036C52BF537C52CF534
:104B0000000E2E6E020E2D6EF5EC25F0000E316EAD
:104B1000000E326E000E336E000E346E000E356ED7
:104B200024EC26F0040E12002A50FC0B02092A6E17
:104B300026042710D8A49FEF25F0A1EF25F0A3EFBE
:104B400025F05EEC21F0D8802334FDEC26F0040E35
:104B50001200010E2B6E2AB4B0EF25F0B2EF25F053
:104B6000BCEF25F02A9623681FEC27F032EC26F0E4
:104B7000E4EC26F029C52BF52B50120004EC27F0AD
:104B800001EC27F00009D8B4C8EF25F0CAEF25F0F2
:104B9000D0EF25F0000ED9EC26F0000EFDEC26F04B
:104BA000000E1200426E380E0EEC21F041C52FF5BA
:104BB0004250BDEC20F0E9EC26F0A9EC25F0530EB4
:104BC000E82EFED700001200020194BFEAEF25F0A4
:104BD000ECEF25F0F4EF25F09A6B9B6B976B8C6BE9
:104BE0008D6B090E9D6F948F12002AA8FAEF25F0A5
:104BF000FCEF25F005EF26F02BC524F52CC525F597
:104C00002DC526F52EC527F52A981200040E02019F
:104C1000946F800E956F180E966F9E6B9A6B9B6BC0
:104C2000976B8C6B8D6B090E9D6F12001CEF26F03D
:104C3000B5EC23F04DEC23F02AB421EF26F023EF5E
:104C400026F018EF26F0120031C52BF532C52CF5F1
:104C500033C52DF534C52EF535C52FF5000EF5EC11
:104C600021F01200A594A596A590A59202019B9112
:104C70009B959B9F9B9D9B939793979597911200D4
:104C8000000E416E010ED2EC25F00D0E436EFC0EAF
:104C9000E82EFED7432EFCD712000001606B616B3B
:104CA000626B636B646B656B666B676B686B120042
:104CB000020199BB5EEF26F061EF26F0010E62EF74
:104CC00026F0000E1200020195BB69EF26F06CEF92
:104CD00026F0010E6DEF26F0000E1200020199B1D0
:104CE00074EF26F077EF26F0010E78EF26F0000E35
:104CF000120002019AB57FEF26F082EF26F0010E36
:104D000083EF26F0000E1200020197B98AEF26F019
:104D10008DEF26F0010E8EEF26F0000E120002013C
:104D20009ABF95EF26F098EF26F0010E99EF26F046
:104D3000000E12002A50FC0B02092A6E2350232475
:104D4000FDEC26F0030E120001EE01F12A0EEE6AD0
:104D5000E806FDE1000130EF24F04DEC26F006EC12
:104D600026F018EC23F0B6EC26F01200700E0001CD
:104D7000AD6FAF6BB36B020EB16FB06B1200DFECB7
:104D800026F02A94020E296E0F0E120007EC27F06F
:104D900004EC27F0F5EC26F01200DFEC26F02A9464
:104DA000296A0F0E12002650D9EC26F094EC25F05B
:104DB00012002B6E2BC58CF202018D6B12000201CA
:104DC000949F9985948F12000201949F9A6B998504
:104DD0001200000E0BEC24F0120007EC27F0090E75
:104DE00012000AEC27F0040E12002A94296A0F0E12
:104DF00012000AEC27F0030E12002B6E2BC58BF26B
:104E0000120002018C5112000201949B1200020157
:104E1000958D12000201959D120002018A51120027
:104E20000201948D12000201949D120002019A95D4
:104E3000120002019799120002019A9F12000201CA
:104E40009A6B1200010E1200020E1200050E1200E3
:044E5000010E12003D
:020000040001F9
:04FFFC00A4EF26F058
:020000040030CA
:10000000FAEFF7FF9FFFFFFFFFFFFFFFFFFFFFFF7D
:03001000FFFFFFF0
:08001700FFFFFFFFFFFFFFFFE9
:00000001FF
