:040000000DEF00F010
:0400080030EFDCF009
:06001800FF0080EFE2F0A2
:10FD52000088E00126DA013EDE0142A4011CC20154
:10FD6200AAC8017AC10162E00142E1013EE101D289
:10FD7200DB01D4E001DCE00154E001CCE00146E02B
:10FD82000102CB01A2C901C6DF013F065B4F666DCE
:10FD92007D277F6F00010203040506070800001C8F
:10FDA2001E1F1E1C0000001F1F1F1F1F0000000738
:10FDB2000F1F0F07005001424D532054656D7073A1
:10FDC200202D20486967683A2025642C204C6F77E3
:10FDD2002025642C20417665726167653A2025648E
:10FDE2002C20496E7465726E616C3A2025640A009B
:10FDF200424D532043757272656E743A2025642C0D
:10FE020020424D5320566F6C746167653A20256419
:10FE12002C20424D5320534F433A2025640A00447C
:10FE2200617368626F6172642064617461207472CC
:10FE3200616E736D69747465642073756363657351
:10FE42007366756C6C790A005472616E736D6973B6
:10FE520073696F6E206661696C6564207769746886
:10FE6200207374617475733A2025640A0043414E0D
:10FE720020627573206572726F722C207472616ECB
:10FE8200736D697373696F6E2061626F72746564FA
:10FE92000A0049676E6F726520756E6B6E6F776EC2
:10FEA200206D736749440A000A4D65737361676583
:10FEB2002052656365697665640A0053686F7274DF
:10FEC20020427574746F6E205072657373004C6FAC
:10FED2006E6720427574746F6E2050726573730082
:10FEE2002020202020202020202020202020202010
:10FEF200005643552053746174653A2025640A0004
:10FF02005072657373205232442B42505300545343
:10FF12002041637469766174696F6E0052544420A3
:10FF22004F4646205741495400566F6C74733A202D
:10FF320025303364560054532052756E2046617545
:10FF42006C7400205077723A253032646B5700256A
:10FF520030326C753A2530326C750050524553532D
:10FF62002054534F4E004176673A253032646B5726
:10FF72000050524543484152474500535441525460
:10FF820055500A00415050532053435300415050A2
:10FF920053204250530053544147203131005232D2
:10FFA20044204F4646004E454720414952002041D9
:10FFB2003A253032640020493A25303264004661E5
:10FFC200696C75726500286E756C6C2900483A255B
:10FFD200303264004C3A2530326400535546535453
:10FFE200005350494E00494E46004E414E00696E44
:0DFFF20066006E616E00257300257500002D
:020000040001F9
:1000000095C5D9F496C5DAF4DEC4F6F4DDC4F7F488
:10001000000EF86E0800F550250AD8A412EF80F003
:1000200014EF80F03DEF89F095C5D9F496C5DAF468
:10003000DE2A000EDD22000E0601ED6F000EEC6FD1
:10004000ECC6F0F6EE69EF69486A68EF80F00601E9
:10005000F08195C5D9F496C5DAF4DE2A000EDD22CA
:1000600068EF80F00601F08329EF80F00601F0854B
:1000700029EF80F00601F08729EF80F00601F08972
:1000800029EF80F0010E486E68EF80F095C5D9F435
:1000900096C5DAF4DEC4F6F4DDC4F7F4000EF86EAB
:1000A0000800F550200AD8B43AEF80F0030AD8B41B
:1000B0003EEF80F0080AD8B436EF80F0060AD8B4D4
:1000C00027EF80F01D0AD8B432EF80F042EF80F0C5
:1000D0004850D8B46EEF80F070EF80F046EF80F0BB
:1000E0000601F0A176EF80F078EF80F079EF80F0F4
:1000F000F09395C501F596C502F597C503F598C52A
:1001000004F503ECDBF001C5ECF602C5EDF60601E3
:10011000EDBF8FEF80F08DEF80F094EF80F0F081F5
:10012000EC6DED1FD8B0ED2B95C5D9F496C5DAF47A
:10013000DEC4F6F4DDC4F7F4000EF86E0800F550E6
:100140002E0AD8A4A6EF80F0A8EF80F0BDEF80F0D3
:1001500095C5D9F496C5DAF4DE2A000EDD2295C5E0
:1001600001F596C502F597C503F598C504F503ECAE
:10017000DBF001C5EEF602C5EFF695C5D9F496C5DC
:10018000DAF4DEC4F6F4DDC4F7F4000EF86E08000D
:10019000F550630AD8A4CFEF80F0D1EF80F0F8EFEC
:1001A00080F095C5D9F496C5DAF4DE2A000EDD227A
:1001B00097C5D9F498C5DAF4DFC43AF5020EDE2605
:1001C000DFC43BF5000EDD223AC5D9F43BC5DAF4B5
:1001D000DF50496E93C50CF594C50DF549C50EF574
:1001E00028ECD8F00CC593F50DC594F55AEF89F0BD
:1001F00095C5D9F496C5DAF4DEC452F5DDC453F5DD
:1002000052C5F6F453C5F7F4000EF86E0800F5C4B5
:1002100049F540EF81F0524A532A52C5F6F453C5CE
:10022000F7F4000EF86E0800F550680AD8A41BEF2A
:1002300081F01DEF81F073EF81F0480E496E524A54
:10024000532A73EF81F0524A532A52C5F6F453C52C
:10025000F7F4000EF86E0800F5506C0AD8A433EFDE
:1002600081F035EF81F073EF81F04C0E496E1FEF96
:1002700081F0690E496E73EF81F0496A73EF81F086
:100280004950580AD8B439EF81F03C0AD8B439EF54
:1002900081F00C0AD8B40BEF81F0010AD8B439EF21
:1002A00081F0030AD8B41FEF81F0060AD8B423EF17
:1002B00081F0020AD8B439EF81F0010AD8B439EFDD
:1002C00081F01B0AD8B41FEF81F0010AD8B439EFCE
:1002D00081F00D0AD8B439EF81F0020AD8B41FEFCB
:1002E00081F03DEF81F052C5F6F453C5F7F4000EEE
:1002F000F86E0800F550640AD8B481EF81F083EFFE
:1003000081F0CFEF82F052C5F6F453C5F7F4000E3A
:10031000F86E0800F550690AD8A491EF81F093EFC8
:1003200081F01CEF83F0CFEF82F097C5D9F498C528
:10033000DAF4DFC43AF5020EDE26DFC43BF5000E28
:10034000DD223AC5D9F43BC5DAF4DEC44AF5DDC492
:100350004BF5000E4BBEFF0E4C6E4D6E4E6E4F6E4B
:10036000506E516EF2EF82F097C5D9F498C5DAF469
:10037000DFC43AF5020EDE26DFC43BF5000EDD22B7
:100380003AC5D9F43BC5DAF4DEC44AF5DDC44BF511
:10039000000E4BBEFF0E4C6E4D6E4E6E4F6E506E8D
:1003A000516EF2EF82F097C5D9F498C5DAF4DFC444
:1003B0003AF5020EDE26DFC43BF5000EDD223AC51B
:1003C000D9F43BC5DAF4DF504A6E000E4ABEFF0E88
:1003D0004B6E4C6E4D6E4E6E4F6E506E516EF2EF18
:1003E00082F097C5D9F498C5DAF4DFC43AF5040E63
:1003F000DE26DFC43BF5000EDD223AC5D9F43BC54D
:10040000DAF4DEC43CF5DEC43DF5DEC43EF5DEC400
:100410003FF53CC540F53DC541F53EC542F53FC5FC
:1004200043F5446A43BE446844C545F544C546F5B2
:1004300044C547F540C54AF541C54BF542C54CF5A5
:1004400043C54DF544C54EF545C54FF546C550F578
:1004500047C551F5F2EF82F097C5D9F498C5DAF4A3
:10046000DFC43AF5080EDE26DFC43BF5000EDD22C0
:100470003AC5D9F43BC5DAF4DEC43CF5DEC43DF53B
:10048000DEC43EF5DEC43FF5DEC440F5DEC441F512
:10049000DEC442F5DEC443F53CC54AF53DC54BF527
:1004A0003EC54CF53FC54DF540C54EF541C54FF530
:1004B00042C550F543C551F5F2EF82F097C5D9F426
:1004C00098C5DAF4DFC43AF5020EDE26DFC43BF548
:1004D000000EDD223AC5D9F43BC5DAF4DEC44AF594
:1004E000DDC44BF5000E4BBEFF0E4C6E4D6E4E6ED6
:1004F0004F6E506E516EF2EF82F097C5D9F498C5E9
:10050000DAF4DFC43AF5080EDE26DFC43BF5000E50
:10051000DD223AC5D9F43BC5DAF4DEC43CF5DEC4CD
:100520003DF5DEC43EF5DEC43FF5DEC440F5DEC475
:1005300041F5DEC442F5DEC443F53CC54AF53DC590
:100540004BF53EC54CF53FC54DF540C54EF541C593
:100550004FF542C550F543C551F5F2EF82F097C50E
:10056000D9F498C5DAF4DFC43AF5020EDE26DFC40A
:100570003BF5000EDD223AC5D9F43BC5DAF4DEC402
:100580003CF5DDC43DF53CC54AF53DC54BF54C6A2F
:100590004D6A4E6A4F6A506A516AF2EF82F04950D2
:1005A000480AD8B4D3EF81F0040AD8B42CEF82F013
:1005B000240AD8B4B4EF81F0010AD8B495EF81F0E1
:1005C000030AD8B47DEF82F0060AD8B4F1EF81F0C7
:1005D000180AD8B45EEF82F00E0AD8B4AFEF82F0FA
:1005E000F2EF82F0010E52243A6E000E53203B6E61
:1005F00095C5D9F496C5DAF43AC5DEF43BC5DDF409
:1006000093C51CF594C51DF54AC51EF54BC51FF5D0
:100610004CC520F54DC521F54EC522F54FC523F536
:1006200050C524F551C525F594ECC0F01CC593F5D3
:100630001DC594F55AEF89F052C5F6F453C5F7F489
:10064000000EF86E0800F550780AD8B42AEF83F04F
:100650002CEF83F084EF84F052C5F6F453C5F7F421
:10066000000EF86E0800F550580AD8B43AEF83F03F
:100670003CEF83F084EF84F052C5F6F453C5F7F4F1
:10068000000EF86E0800F5506F0AD8B44AEF83F0F8
:100690004CEF83F084EF84F052C5F6F453C5F7F4C1
:1006A000000EF86E0800F550750AD8A45AEF83F0D2
:1006B0005CEF83F02EEF85F084EF84F097C5D9F4DA
:1006C00098C5DAF4DFC43AF5020EDE26DFC43BF546
:1006D000000EDD223AC5D9F43BC5DAF4DEC43CF5A0
:1006E000DDC43DF53CC54AF53DC54BF54C6A4D6A48
:1006F0004E6A4F6A506A516AA7EF84F097C5D9F4E1
:1007000098C5DAF4DFC43AF5020EDE26DFC43BF505
:10071000000EDD223AC5D9F43BC5DAF4DEC43CF55F
:10072000DDC43DF53CC54AF53DC54BF54C6A4D6A07
:100730004E6A4F6A506A516AA7EF84F097C5D9F4A0
:1007400098C5DAF4DFC43AF5020EDE26DFC43BF5C5
:10075000000EDD223AC5D9F43BC5DAF4DF503C6E19
:100760003C504A6E4B6A4C6A4D6A4E6A4F6A506AF8
:10077000516AA7EF84F097C5D9F498C5DAF4DFC4BD
:100780003AF5040EDE26DFC43BF5000EDD223AC545
:10079000D9F43BC5DAF4DEC43CF5DEC43DF5DEC475
:1007A0003EF5DEC43FF53C504A6E3D504B6E3E5028
:1007B0004C6E3F504D6E4E6A4F6A506A516AA7EFB9
:1007C00084F097C5D9F498C5DAF4DFC43AF5080E79
:1007D000DE26DFC43BF5000EDD223AC5D9F43BC569
:1007E000DAF4DEC43CF5DEC43DF5DEC43EF5DEC41D
:1007F0003FF5DEC440F5DEC441F5DEC442F5DEC49B
:1008000043F53CC54AF53DC54BF53EC54CF53FC5E6
:100810004DF540C54EF541C54FF542C550F543C5B0
:1008200051F5A7EF84F097C5D9F498C5DAF4DFC481
:100830003AF5020EDE26DFC43BF5000EDD223AC596
:10084000D9F43BC5DAF4DEC44AF5DDC44BF5000E3D
:100850004BBEFF0E4C6E4D6E4E6E4F6E506E516E17
:10086000A7EF84F097C5D9F498C5DAF4DFC43AF558
:10087000080EDE26DFC43BF5000EDD223AC5D9F4B2
:100880003BC5DAF4DEC43CF5DEC43DF5DEC43EF51E
:10089000DEC43FF5DEC440F5DEC441F5DEC442F5FA
:1008A000DEC443F53CC54AF53DC54BF53EC54CF5A8
:1008B0003FC54DF540C54EF541C54FF542C550F514
:1008C00043C551F5A7EF84F097C5D9F498C5DAF47C
:1008D000DFC43AF5020EDE26DFC43BF5000EDD2252
:1008E0003AC5D9F43BC5DAF4DEC43CF5DDC43DF5C8
:1008F0003CC54AF53DC54BF54C6A4D6A4E6A4F6A98
:10090000506A516AA7EF84F04950480AD8B49EEF64
:1009100083F0040AD8B4E1EF83F0240AD8B47EEF60
:1009200083F0010AD8B45EEF83F0030AD8B432EF43
:1009300084F0060AD8B4BBEF83F0180AD8B413EFDA
:1009400084F00E0AD8B464EF84F0A7EF84F0010EAF
:1009500052243A6E000E53203B6E95C5D9F496C5CD
:10096000DAF43AC5DEF43BC5DDF414EF85F093C547
:100970001CF594C51DF54AC51EF54BC51FF54CC5A4
:1009800020F54DC521F54EC522F54FC523F550C5BF
:1009900024F551C525F561ECCAF01CC593F51DC5BC
:1009A00094F55AEF89F093C51CF594C51DF54AC519
:1009B0001EF54BC51FF54CC520F54DC521F54EC59F
:1009C00022F54FC523F550C524F551C525F576EC24
:1009D000C9F01CC593F51DC594F55AEF89F093C570
:1009E0001CF594C51DF54AC51EF54BC51FF54CC534
:1009F00020F54DC521F54EC522F54FC523F550C54F
:100A000024F551C525F552C5F6F453C5F7F4000E8B
:100A1000F86E0800F5C426F5DAECC1F01CC593F5B4
:100A20001DC594F55AEF89F052C5F6F453C5F7F495
:100A3000000EF86E0800F550580AD8B4EFEF84F0B5
:100A4000370AD8B4B7EF84F01A0AD8B4D3EF84F0D9
:100A50000D0AD8B4EFEF84F02EEF85F052C5F6F40E
:100A600053C5F7F4000EF86E0800F5506E0AD8A4CE
:100A70003CEF85F03EEF85F0A5EF86F06DEF86F058
:100A800097C5D9F498C5DAF4DFC43AF5020EDE262C
:100A9000DFC43BF5000EDD223AC5D9F43BC5DAF4DC
:100AA000DEC43CF5DDC43DF53CC5D9F43DC5DAF402
:100AB0005CC5DEF45DC5DDF490EF86F097C5D9F432
:100AC00098C5DAF4DFC43AF5020EDE26DFC43BF542
:100AD000000EDD223AC5D9F43BC5DAF4DEC43CF59C
:100AE000DDC43DF53CC5D9F43DC5DAF45CC5DEF4A2
:100AF0005DC5DDF490EF86F097C5D9F498C5DAF4BA
:100B0000DFC43AF5020EDE26DFC43BF5000EDD221F
:100B10003AC5D9F43BC5DAF4DEC43CF5DDC43DF595
:100B20003CC5D9F43DC5DAF45CC5DFF490EF86F03E
:100B30005CC53AF55DC53BF5000E3BBEFF0E3C6E55
:100B40003D6E97C5D9F498C5DAF4DFC43EF5020EC0
:100B5000DE26DFC43FF5000EDD223EC5D9F43FC5D9
:100B6000DAF4DEC440F5DDC441F540C5D9F441C531
:100B7000DAF43AC5DEF43BC5DEF43CC5DEF43DC52F
:100B8000DEF490EF86F05CC53AF55DC53BF5000EEE
:100B90003BBEFF0E3C6E3D6E3E6E3F6E406E416E44
:100BA00097C5D9F498C5DAF4DFC442F5020EDE2603
:100BB000DFC443F5000EDD2242C5D9F443C5DAF4A3
:100BC000DEC444F5DDC445F544C5D9F445C5DAF4C1
:100BD0003AC5DEF43BC5DEF43CC5DEF43DC5DEF4CB
:100BE0003EC5DEF43FC5DEF440C5DEF441C5DEF4AB
:100BF00090EF86F097C5D9F498C5DAF4DFC43AF5DA
:100C0000020EDE26DFC43BF5000EDD223AC5D9F424
:100C10003BC5DAF4DEC43CF5DDC43DF53CC5D9F492
:100C20003DC5DAF45CC5DEF45DC5DDF490EF86F019
:100C30005CC53AF55DC53BF5000E3BBEFF0E3C6E54
:100C40003D6E3E6E3F6E406E416E97C5D9F498C5BD
:100C5000DAF4DFC442F5020EDE26DFC443F5000EEF
:100C6000DD2242C5D9F443C5DAF4DEC444F5DDC45F
:100C700045F544C5D9F445C5DAF43AC5DEF43BC5BB
:100C8000DEF43CC5DEF43DC5DEF43EC5DEF43FC512
:100C9000DEF440C5DEF441C5DEF490EF86F097C582
:100CA000D9F498C5DAF4DFC43AF5020EDE26DFC4C3
:100CB0003BF5000EDD223AC5D9F43BC5DAF4DEC4BB
:100CC0003CF5DDC43DF53CC5D9F43DC5DAF45CC561
:100CD000DEF45DC5DDF490EF86F04950480AD8B4E3
:100CE0007CEF85F0040AD8B4C3EF85F0240AD8B4A9
:100CF0005EEF85F0010AD8B440EF85F0030AD8B45E
:100D000018EF86F0060AD8B498EF85F0180AD8B420
:100D1000FAEF85F00E0AD8B44FEF86F090EF86F028
:100D2000010E52243A6E000E53203B6E95C5D9F445
:100D300096C5DAF43AC5DEF43BC5DDF4000E0501D4
:100D4000946F000E936F5AEF89F095C5D9F496C54C
:100D5000DAF4DEC4F6F4DDC4F7F4000EF86E080031
:100D6000F550700AD8A4B7EF86F0B9EF86F0ECEF33
:100D700086F095C5D9F496C5DAF4DE2A000EDD2298
:100D800093C51CF594C51DF597C5D9F498C5DAF43B
:100D9000DFC43AF5020EDE26DFC43BF5000EDD228D
:100DA0003AC5D9F43BC5DAF4DEC43CF5DDC43DF503
:100DB0003CC51EF53DC51FF5206A216A226A236ADB
:100DC000246A256A780E266EDAECC1F01CC593F50C
:100DD0001DC594F55AEF89F0486A95C5D9F496C5B2
:100DE000DAF4DEC4F6F4DDC4F7F4000EF86E0800A1
:100DF000F550730AD8A4FFEF86F001EF87F00CEFEF
:100E000087F095C5D9F496C5DAF4DE2A000EDD2206
:100E1000010E486E62EF87F095C5D9F496C5DAF4F5
:100E2000DEC4F6F4DDC4F7F4000EF86E0800F550E9
:100E30006C0AD8A41EEF87F020EF87F062EF87F0EE
:100E400095C5D9F496C5DAF4DEC43AF5DDC43BF5B0
:100E5000010E3A26000E3B223AC5F6F43BC5F7F4E4
:100E6000000EF86E0800F5506C0AD8A43AEF87F02F
:100E70003CEF87F062EF87F095C5D9F496C5DAF4B8
:100E8000DEC43AF5DDC43BF5020E3A26000E3B22E5
:100E90003AC5F6F43BC5F7F4000EF86E0800F550BD
:100EA000730AD8A456EF87F058EF87F062EF87F007
:100EB000030E95C5D9F496C5DAF4DE26000EDD22C0
:100EC00008EF87F04850D8B468EF87F06AEF87F0F2
:100ED0008AEF87F093C50CF594C50DF597C5D9F445
:100EE00098C5DAF4DFC43AF5020EDE26DFC43BF51E
:100EF000000EDD223AC5D9F43BC5DAF4DEC40EF5A6
:100F0000DDC40FF505ECCDF00CC593F50DC594F5DA
:100F10005AEF89F095C5D9F496C5DAF4DEC452F5D6
:100F2000DDC453F552C5F6F453C5F7F4000EF86E60
:100F30000800F5C449F5A8EF87F0524A532AD3EFC9
:100F400087F06C0E496ED3EF87F0496AD3EF87F0D4
:100F50004950410AD8B4A1EF87F0040AD8B4A1EFF0
:100F600087F0030AD8B4A1EF87F0010AD8B4A1EF43
:100F700087F00B0AD8B49DEF87F02D0AD8B4A1EF03
:100F800087F0040AD8B4A1EF87F0030AD8B4A1EF20
:100F900087F0010AD8B4A1EF87F00B0AD8B49DEF0F
:100FA00087F0A5EF87F052C5F6F453C5F7F4000EAD
:100FB000F86E0800F550610AD8B4E1EF87F0E3EF6E
:100FC00087F089EF88F052C5F6F453C5F7F4000EA8
:100FD000F86E0800F550410AD8B4F1EF87F0F3EF4E
:100FE00087F089EF88F052C5F6F453C5F7F4000E88
:100FF000F86E0800F550650AD8B401EF88F003EFE9
:1010000088F089EF88F052C5F6F453C5F7F4000E66
:10101000F86E0800F550450AD8B411EF88F013EFC8
:1010200088F089EF88F052C5F6F453C5F7F4000E46
:10103000F86E0800F550660AD8B421EF88F023EF67
:1010400088F089EF88F052C5F6F453C5F7F4000E26
:10105000F86E0800F550460AD8B431EF88F033EF47
:1010600088F089EF88F052C5F6F453C5F7F4000E06
:10107000F86E0800F550670AD8B441EF88F043EFE6
:1010800088F089EF88F052C5F6F453C5F7F4000EE6
:10109000F86E0800F550470AD8A451EF88F053EFD6
:1010A00088F008EF89F089EF88F097C5D9F498C5E2
:1010B000DAF4DFC43AF5040EDE26DFC43BF5000E99
:1010C000DD223AC5D9F43BC5DAF4DEC44AF5DEC404
:1010D0004BF5DEC44CF5DEC44DF594EF88F097C5B2
:1010E000D9F498C5DAF4DFC43AF5040EDE26DFC47D
:1010F0003BF5000EDD223AC5D9F43BC5DAF4DEC477
:101100004AF5DEC44BF5DEC44CF5DEC44DF594EF74
:1011100088F049504C0AD8B46FEF88F0200AD8B450
:1011200055EF88F094EF88F0010E52243A6E000ECD
:1011300053203B6E95C5D9F496C5DAF43AC5DEF472
:101140003BC5DDF4DEEF88F093C52EF594C52FF591
:101150004AC530F54BC531F54CC532F54DC533F5B3
:1011600052C5F6F453C5F7F4000EF86E0800F5C446
:1011700034F5B4ECA0F02EC593F52FC594F55AEFD5
:1011800089F093C52EF594C52FF54AC530F54BC5AA
:1011900031F54CC532F54DC533F552C5F6F453C59E
:1011A000F7F4000EF86E0800F5C434F5B2EC92F0D6
:1011B0002EC593F52FC594F55AEF89F052C5F6F474
:1011C00053C5F7F4000EF86E0800F550410AD8B484
:1011D000A4EF88F0040AD8B4C1EF88F0030AD8B4A9
:1011E000C1EF88F0010AD8B4C1EF88F0260AD8B45C
:1011F000A4EF88F0040AD8B4C1EF88F0030AD8B489
:10120000C1EF88F0010AD8B4C1EF88F008EF89F087
:1012100095C5D9F496C5DAF4DEC4F6F4DDC4F7F466
:10122000000EF86E0800F550250AD8A41AEF89F0D0
:101230001CEF89F034EF89F095C5D9F496C5DAF43E
:10124000DE2A000EDD22000E046E250E036E93C50D
:1012500005F594C506F569ECDBF0000E0501946F09
:10126000010E936F5AEF89F095C5D9F496C5DAF45B
:10127000DE2A000EDD229EEF86F095C5D9F496C5D4
:10128000DAF4DEC4F6F4DDC4F7F4000EF86E0800FC
:10129000F550036E046A93C505F594C506F569EC2F
:1012A000DBF095C5D9F496C5DAF4DE2A000EDD220E
:1012B0002DEF89F012006CC6D9F46DC6DAF4DEC4E5
:1012C000F6F4DDC4F7F4000EF86E0800F550250AB8
:1012D000D8A46DEF89F06FEF89F093EF92F06CC6B0
:1012E000D9F46DC6DAF4DE2A000EDD22000E060106
:1012F000ED6F000EEC6FECC6F0F6EE69EF697E6BF9
:10130000BEEF89F0F0816CC6D9F46DC6DAF4DE2A3E
:10131000000EDD22BEEF89F0F08383EF89F0F085C7
:1013200083EF89F0F08783EF89F0F08983EF89F00C
:10133000010E7E6FBEEF89F06CC6D9F46DC6DAF48B
:10134000DEC4F6F4DDC4F7F4000EF86E0800F550C4
:10135000200AD8B492EF89F0030AD8B495EF89F047
:10136000080AD8B48FEF89F0060AD8B482EF89F062
:101370001D0AD8B48CEF89F098EF89F07E51D8B46B
:10138000C4EF89F0C6EF89F09CEF89F0F0A1CBEFB4
:1013900089F0CDEF89F0CEEF89F0F0936CC600F6BE
:1013A0006DC601F66EC602F66FC603F6D0ECD9F034
:1013B00000C6ECF601C6EDF60601EDBFE4EF89F0DC
:1013C000E2EF89F0E9EF89F0F081EC6DED1FD8B024
:1013D000ED2B6CC6D9F46DC6DAF4DEC4F6F4DDC4C8
:1013E000F7F4000EF86E0800F5502E0AD8A4FBEFB3
:1013F00089F0FDEF89F012EF8AF06CC6D9F46DC662
:10140000DAF4DE2A000EDD226CC600F66DC601F6A7
:101410006EC602F66FC603F6D0ECD9F000C6EEF643
:1014200001C6EFF66CC6D9F46DC6DAF4DEC4F6F484
:10143000DDC4F7F4000EF86E0800F550630AD8A476
:1014400024EF8AF026EF8AF04EEF8AF06CC6D9F4CA
:101450006DC6DAF4DE2A000EDD226EC6D9F46FC640
:10146000DAF4DFC470F6020EDE26DFC471F6000E79
:10147000DD2270C6D9F471C6DAF4DF5006017F6F41
:101480006AC60BF66BC60CF67FC60DF6BAECD7F043
:101490000BC66AF60CC66BF6B1EF92F06CC6D9F4C7
:1014A0006DC6DAF4DEC488F6DDC489F688C6F6F4C3
:1014B00089C6F7F4000EF86E0800F5C47FF696EFC3
:1014C0008AF0884B892B88C6F6F489C6F7F4000E9B
:1014D000F86E0800F550680AD8A471EF8AF073EF2F
:1014E0008AF0CAEF8AF0480E7F6F884B892BCAEFCB
:1014F0008AF0884B892B88C6F6F489C6F7F4000E6B
:10150000F86E0800F5506C0AD8A489EF8AF08BEFCA
:101510008AF0CAEF8AF04C0E7F6F75EF8AF0690E81
:101520007F6FCAEF8AF07F6BCAEF8AF006017F51A6
:10153000580AD8B48FEF8AF03C0AD8B48FEF8AF0FB
:101540000C0AD8B461EF8AF0010AD8B48FEF8AF0A0
:10155000030AD8B475EF8AF0060AD8B479EF8AF096
:10156000020AD8B48FEF8AF0010AD8B48FEF8AF05C
:101570001B0AD8B475EF8AF0010AD8B48FEF8AF04D
:101580000D0AD8B48FEF8AF0020AD8B475EF8AF04A
:1015900093EF8AF088C6F6F489C6F7F4000EF86E69
:1015A0000800F550640AD8B4D8EF8AF0DAEF8AF070
:1015B00026EF8CF088C6F6F489C6F7F4000EF86EB4
:1015C0000800F550690AD8A4E8EF8AF0EAEF8AF03B
:1015D00073EF8CF026EF8CF06EC6D9F46FC6DAF498
:1015E000DFC470F6020EDE26DFC471F6000EDD22C7
:1015F00070C6D9F471C6DAF4DEC480F6DDC481F6B3
:10160000000E81BFFF0E826F836F846F856F866FC0
:10161000876F49EF8CF06EC6D9F46FC6DAF4DFC479
:1016200070F6020EDE26DFC471F6000EDD2270C6F3
:10163000D9F471C6DAF4DEC480F6DDC481F6000E9A
:1016400081BFFF0E826F836F846F856F866F876F98
:1016500049EF8CF06EC6D9F46FC6DAF4DFC470F6C9
:10166000020EDE26DFC471F6000EDD2270C6D9F44C
:1016700071C6DAF4DF50806F000E80BFFF0E816FFD
:10168000826F836F846F856F866F876F49EF8CF0F1
:101690006EC6D9F46FC6DAF4DFC470F6040EDE2627
:1016A000DFC471F6000EDD2270C6D9F471C6DAF41B
:1016B000DEC472F6DEC473F6DEC474F6DEC475F6FC
:1016C00072C676F673C677F674C678F675C679F67E
:1016D0007A6B79BF7A697AC67BF67AC67CF67AC667
:1016E0007DF676C680F677C681F678C682F679C62C
:1016F00083F67AC684F67BC685F67CC686F67DC6FA
:1017000087F649EF8CF06EC6D9F46FC6DAF4DFC401
:1017100070F6080EDE26DFC471F6000EDD2270C6FC
:10172000D9F471C6DAF4DEC472F6DEC473F6DEC430
:1017300074F6DEC475F6DEC476F6DEC477F6DEC473
:1017400078F6DEC479F672C680F673C681F674C682
:1017500082F675C683F676C684F677C685F678C6B1
:1017600086F679C687F649EF8CF06EC6D9F46FC657
:10177000DAF4DFC470F6020EDE26DFC471F6000E66
:10178000DD2270C6D9F471C6DAF4DEC480F6DDC499
:1017900081F6000E81BFFF0E826F836F846F856FAD
:1017A000866F876F49EF8CF06EC6D9F46FC6DAF496
:1017B000DFC470F6080EDE26DFC471F6000EDD22EF
:1017C00070C6D9F471C6DAF4DEC472F6DEC473F6FC
:1017D000DEC474F6DEC475F6DEC476F6DEC477F6D3
:1017E000DEC478F6DEC479F672C680F673C681F67A
:1017F00074C682F675C683F676C684F677C685F615
:1018000078C686F679C687F649EF8CF06EC6D9F4AD
:101810006FC6DAF4DFC470F6020EDE26DFC471F69E
:10182000000EDD2270C6D9F471C6DAF4DEC472F699
:10183000DDC473F672C680F673C681F6826B836B65
:10184000846B856B866B876B49EF8CF07F51480A00
:10185000D8B42AEF8BF0040AD8B483EF8BF0240AB3
:10186000D8B40BEF8BF0010AD8B4ECEF8AF0030A7E
:10187000D8B4D4EF8BF0060AD8B448EF8BF0180A2E
:10188000D8B4B5EF8BF00E0AD8B406EF8CF049EF60
:101890008CF0010E8825706F000E8921716F6CC667
:1018A000D9F46DC6DAF470C6DEF471C6DDF46AC62A
:1018B0001BF66BC61CF680C61DF681C61EF682C6D8
:1018C0001FF683C620F684C621F685C622F686C694
:1018D00023F687C624F64DECBFF01BC66AF61CC67D
:1018E0006BF6B1EF92F088C6F6F489C6F7F4000EF5
:1018F000F86E0800F550780AD8B481EF8CF083EFC9
:101900008CF0DBEF8DF088C6F6F489C6F7F4000E94
:10191000F86E0800F550580AD8B491EF8CF093EFA8
:101920008CF0DBEF8DF088C6F6F489C6F7F4000E74
:10193000F86E0800F5506F0AD8B4A1EF8CF0A3EF51
:101940008CF0DBEF8DF088C6F6F489C6F7F4000E54
:10195000F86E0800F550750AD8A4B1EF8CF0B3EF1B
:101960008CF085EF8EF0DBEF8DF06EC6D9F46FC68C
:10197000DAF4DFC470F6020EDE26DFC471F6000E64
:10198000DD2270C6D9F471C6DAF4DEC472F6DDC4A5
:1019900073F672C680F673C681F6826B836B846BB6
:1019A000856B866B876BFEEF8DF06EC6D9F46FC6C4
:1019B000DAF4DFC470F6020EDE26DFC471F6000E24
:1019C000DD2270C6D9F471C6DAF4DEC472F6DDC465
:1019D00073F672C680F673C681F6826B836B846B76
:1019E000856B866B876BFEEF8DF06EC6D9F46FC684
:1019F000DAF4DFC470F6020EDE26DFC471F6000EE4
:101A0000DD2270C6D9F471C6DAF4DF50726F7251FC
:101A1000806F816B826B836B846B856B866B876B4E
:101A2000FEEF8DF06EC6D9F46FC6DAF4DFC470F63F
:101A3000040EDE26DFC471F6000EDD2270C6D9F476
:101A400071C6DAF4DEC472F6DEC473F6DEC474F670
:101A5000DEC475F67251806F7351816F7451826F5D
:101A60007551836F846B856B866B876BFEEF8DF092
:101A70006EC6D9F46FC6DAF4DFC470F6080EDE263F
:101A8000DFC471F6000EDD2270C6D9F471C6DAF437
:101A9000DEC472F6DEC473F6DEC474F6DEC475F618
:101AA000DEC476F6DEC477F6DEC478F6DEC479F6F8
:101AB00072C680F673C681F674C682F675C683F662
:101AC00076C684F677C685F678C686F679C687F632
:101AD000FEEF8DF06EC6D9F46FC6DAF4DFC470F68F
:101AE000020EDE26DFC471F6000EDD2270C6D9F4C8
:101AF00071C6DAF4DEC480F6DDC481F6000E81BF63
:101B0000FF0E826F836F846F856F866F876FFEEF26
:101B10008DF06EC6D9F46FC6DAF4DFC470F6080E25
:101B2000DE26DFC471F6000EDD2270C6D9F471C660
:101B3000DAF4DEC472F6DEC473F6DEC474F6DEC414
:101B400075F6DEC476F6DEC477F6DEC478F6DEC45B
:101B500079F672C680F673C681F674C682F675C6CB
:101B600083F676C684F677C685F678C686F679C695
:101B700087F6FEEF8DF06EC6D9F46FC6DAF4DFC4D7
:101B800070F6020EDE26DFC471F6000EDD2270C68E
:101B9000D9F471C6DAF4DEC472F6DDC473F672C627
:101BA00080F673C681F6826B836B846B856B866B64
:101BB000876BFEEF8DF07F51480AD8B4F5EF8CF0BB
:101BC000040AD8B438EF8DF0240AD8B4D5EF8CF0DD
:101BD000010AD8B4B5EF8CF0030AD8B489EF8DF0C0
:101BE000060AD8B412EF8DF0180AD8B46AEF8DF057
:101BF0000E0AD8B4BBEF8DF0FEEF8DF0010E8825F4
:101C0000706F000E8921716F6CC6D9F46DC6DAF45D
:101C100070C6DEF471C6DDF46BEF8EF06AC61BF69B
:101C20006BC61CF680C61DF681C61EF682C61FF660
:101C300083C620F684C621F685C622F686C623F61C
:101C400087C624F647ECCBF01BC66AF61CC66BF6BB
:101C5000B1EF92F06AC61BF66BC61CF680C61DF685
:101C600081C61EF682C61FF683C620F684C621F6FC
:101C700085C622F686C623F687C624F68AECC8F007
:101C80001BC66AF61CC66BF6B1EF92F06AC61BF66D
:101C90006BC61CF680C61DF681C61EF682C61FF6F0
:101CA00083C620F684C621F685C622F686C623F6AC
:101CB00087C624F688C6F6F489C6F7F4000EF86ED7
:101CC0000800F5C425F60FECC3F01BC66AF61CC667
:101CD0006BF6B1EF92F088C6F6F489C6F7F4000E01
:101CE000F86E0800F550580AD8B446EF8EF0370A5F
:101CF000D8B40EEF8EF01A0AD8B42AEF8EF00D0A7F
:101D0000D8B446EF8EF085EF8EF088C6F6F489C61B
:101D1000F7F4000EF86E0800F5506E0AD8A493EFA1
:101D20008EF095EF8EF0FBEF8FF0C4EF8FF06EC664
:101D3000D9F46FC6DAF4DFC470F6020EDE26DFC413
:101D400071F6000EDD2270C6D9F471C6DAF4DEC475
:101D500072F6DDC473F672C6D9F473C6DAF45CC5E4
:101D6000DEF45DC5DDF4E7EF8FF06EC6D9F46FC623
:101D7000DAF4DFC470F6020EDE26DFC471F6000E60
:101D8000DD2270C6D9F471C6DAF4DEC472F6DDC4A1
:101D900073F672C6D9F473C6DAF45CC5DEF45DC5B9
:101DA000DDF4E7EF8FF06EC6D9F46FC6DAF4DFC466
:101DB00070F6020EDE26DFC471F6000EDD2270C65C
:101DC000D9F471C6DAF4DEC472F6DDC473F672C6F5
:101DD000D9F473C6DAF45CC5DFF4E7EF8FF05CC5C5
:101DE00070F65DC571F6000E71BFFF0E726F736FF6
:101DF0006EC6D9F46FC6DAF4DFC474F6020EDE26BE
:101E0000DFC475F6000EDD2274C6D9F475C6DAF4A7
:101E1000DEC476F6DDC477F676C6D9F477C6DAF492
:101E200070C6DEF471C6DEF472C6DEF473C6DEF48C
:101E3000E7EF8FF05CC570F65DC571F6000E71BFFF
:101E4000FF0E726F736F746F756F766F776F6EC6FC
:101E5000D9F46FC6DAF4DFC478F6020EDE26DFC4EA
:101E600079F6000EDD2278C6D9F479C6DAF4DEC43C
:101E70007AF6DDC47BF67AC6D9F47BC6DAF470C68E
:101E8000DEF471C6DEF472C6DEF473C6DEF474C628
:101E9000DEF475C6DEF476C6DEF477C6DEF4E7EF70
:101EA0008FF06EC6D9F46FC6DAF4DFC470F6020E96
:101EB000DE26DFC471F6000EDD2270C6D9F471C6CD
:101EC000DAF4DEC472F6DDC473F672C6D9F473C6F2
:101ED000DAF45CC5DEF45DC5DDF4E7EF8FF05CC5D8
:101EE00070F65DC571F6000E71BFFF0E726F736FF5
:101EF000746F756F766F776F6EC6D9F46FC6DAF44C
:101F0000DFC478F6020EDE26DFC479F6000EDD228D
:101F100078C6D9F479C6DAF4DEC47AF6DDC47BF685
:101F20007AC6D9F47BC6DAF470C6DEF471C6DEF484
:101F300072C6DEF473C6DEF474C6DEF475C6DEF473
:101F400076C6DEF477C6DEF4E7EF8FF06EC6D9F41E
:101F50006FC6DAF4DFC470F6020EDE26DFC471F657
:101F6000000EDD2270C6D9F471C6DAF4DEC472F652
:101F7000DDC473F672C6D9F473C6DAF45CC5DEF458
:101F80005DC5DDF4E7EF8FF07F51480AD8B4D3EF99
:101F90008EF0040AD8B41AEF8FF0240AD8B4B5EF43
:101FA0008EF0010AD8B497EF8EF0030AD8B46FEF21
:101FB0008FF0060AD8B4EFEF8EF0180AD8B451EFBC
:101FC0008FF00E0AD8B4A6EF8FF0E7EF8FF0010E76
:101FD0008825706F000E8921716F6CC6D9F46DC6AB
:101FE000DAF470C6DEF471C6DDF4000E6B6F000E1D
:101FF0006A6FB1EF92F06CC6D9F46DC6DAF4DEC444
:10200000F6F4DDC4F7F4000EF86E0800F550700A1F
:10201000D8A40DEF90F00FEF90F042EF90F06CC667
:10202000D9F46DC6DAF4DE2A000EDD226AC61BF68C
:102030006BC61CF66EC6D9F46FC6DAF4DFC470F650
:10204000020EDE26DFC471F6000EDD2270C6D9F462
:1020500071C6DAF4DEC472F6DDC473F672C61DF61C
:1020600073C61EF61F6B206B216B226B236B246BD8
:10207000780E256F0FECC3F01BC66AF61CC66BF614
:10208000B1EF92F07E6B6CC6D9F46DC6DAF4DEC4A3
:10209000F6F4DDC4F7F4000EF86E0800F550730A8C
:1020A000D8A455EF90F057EF90F062EF90F06CC627
:1020B000D9F46DC6DAF4DE2A000EDD22010E7E6F41
:1020C000B8EF90F06CC6D9F46DC6DAF4DEC4F6F45D
:1020D000DDC4F7F4000EF86E0800F5506C0AD8A4C1
:1020E00074EF90F076EF90F0B8EF90F06CC6D9F402
:1020F0006DC6DAF4DEC470F6DDC471F6010E702729
:10210000000E712370C6F6F471C6F7F4000EF86E77
:102110000800F5506C0AD8A490EF90F092EF90F080
:10212000B8EF90F06CC6D9F46DC6DAF4DEC470F680
:10213000DDC471F6020E7027000E712370C6F6F42E
:1021400071C6F7F4000EF86E0800F550730AD8A4B3
:10215000ACEF90F0AEEF90F0B8EF90F0030E6CC6DD
:10216000D9F46DC6DAF4DE26000EDD225EEF90F0C3
:102170007E51D8B4BEEF90F0C0EF90F0E0EF90F059
:102180006AC60BF66BC60CF66EC6D9F46FC6DAF4E7
:10219000DFC470F6020EDE26DFC471F6000EDD220B
:1021A00070C6D9F471C6DAF4DEC40DF6DDC40EF6DD
:1021B0002BECCCF00BC66AF60CC66BF6B1EF92F0C6
:1021C0006CC6D9F46DC6DAF4DEC488F6DDC489F6CF
:1021D00088C6F6F489C6F7F4000EF86E0800F5C458
:1021E0007FF6FEEF90F0884B892B29EF91F06C0E73
:1021F0007F6F29EF91F07F6B29EF91F07F51410ABA
:10220000D8B4F7EF90F0040AD8B4F7EF90F0030ACF
:10221000D8B4F7EF90F0010AD8B4F7EF90F00B0ABA
:10222000D8B4F3EF90F02D0AD8B4F7EF90F0040A89
:10223000D8B4F7EF90F0030AD8B4F7EF90F0010AA2
:10224000D8B4F7EF90F00B0AD8B4F3EF90F0FBEFAF
:1022500090F088C6F6F489C6F7F4000EF86E080010
:10226000F550610AD8B437EF91F039EF91F0DFEF14
:1022700091F088C6F6F489C6F7F4000EF86E0800EF
:10228000F550410AD8B447EF91F049EF91F0DFEFF4
:1022900091F088C6F6F489C6F7F4000EF86E0800CF
:1022A000F550650AD8B457EF91F059EF91F0DFEF90
:1022B00091F088C6F6F489C6F7F4000EF86E0800AF
:1022C000F550450AD8B467EF91F069EF91F0DFEF70
:1022D00091F088C6F6F489C6F7F4000EF86E08008F
:1022E000F550660AD8B477EF91F079EF91F0DFEF0F
:1022F00091F088C6F6F489C6F7F4000EF86E08006F
:10230000F550460AD8B487EF91F089EF91F0DFEFEE
:1023100091F088C6F6F489C6F7F4000EF86E08004E
:10232000F550670AD8B497EF91F099EF91F0DFEF8D
:1023300091F088C6F6F489C6F7F4000EF86E08002E
:10234000F550470AD8A4A7EF91F0A9EF91F05EEFFE
:1023500092F0DFEF91F06EC6D9F46FC6DAF4DFC405
:1023600070F6040EDE26DFC471F6000EDD2270C6A4
:10237000D9F471C6DAF4DEC480F6DEC481F6DEC4B8
:1023800082F6DEC483F6EAEF91F06EC6D9F46FC62A
:10239000DAF4DFC470F6040EDE26DFC471F6000E38
:1023A000DD2270C6D9F471C6DAF4DEC480F6DEC46C
:1023B00081F6DEC482F6DEC483F6EAEF91F07F5147
:1023C0004C0AD8B4C5EF91F0200AD8B4ABEF91F025
:1023D000EAEF91F0010E8825706F000E8921716F70
:1023E0006CC6D9F46DC6DAF470C6DEF471C6DDF4DD
:1023F00034EF92F06AC62DF66BC62EF680C62FF625
:1024000081C630F682C631F683C632F688C6F6F447
:1024100089C6F7F4000EF86E0800F5C433F618EC20
:10242000A7F02DC66AF62EC66BF6B1EF92F06AC61B
:102430002DF66BC62EF680C62FF681C630F682C604
:1024400031F683C632F688C6F6F489C6F7F4000E74
:10245000F86E0800F5C433F6B9EC99F02DC66AF6AB
:102460002EC66BF6B1EF92F088C6F6F489C6F7F483
:10247000000EF86E0800F550410AD8B4FAEF91F05A
:10248000040AD8B417EF92F0030AD8B417EF92F009
:10249000010AD8B417EF92F0260AD8B4FAEF91F0F7
:1024A000040AD8B417EF92F0030AD8B417EF92F0E9
:1024B000010AD8B417EF92F05EEF92F06CC6D9F42F
:1024C0006DC6DAF4DEC4F6F4DDC4F7F4000EF86E7F
:1024D0000800F550250AD8A470EF92F072EF92F040
:1024E0008AEF92F06CC6D9F46DC6DAF4DE2A000EDB
:1024F000DD22000E036F250E026F6AC604F66BC65E
:1025000005F637ECDAF0000E06016B6F010E6A6F0C
:10251000B1EF92F06CC6D9F46DC6DAF4DE2A000E83
:10252000DD22F5EF8FF06CC6D9F46DC6DAF4DEC4A7
:10253000F6F4DDC4F7F4000EF86E0800F55006015D
:10254000026F036B6AC604F66BC605F637ECDAF069
:102550006CC6D9F46DC6DAF4DE2A000EDD2283EFF4
:1025600092F012000501846B30C585F531C586F502
:1025700032C587F533C588F588BFC3EF92F0C1EF48
:1025800092F0D7EF92F0010E846F85C501F586C5F4
:1025900002F587C503F588C504F556ECEBF001C5D7
:1025A00085F502C586F503C587F504C588F5000ED7
:1025B0000501926F000E916FECC67AF5EDC67BF5C2
:1025C0008451D8A4E6EF92F0E8EF92F0F0EF92F0A9
:1025D0000601F0A5EEEF92F0F0EF92F007EF93F026
:1025E00005018451D8A4F7EF92F0F9EF92F0FFEFD4
:1025F00092F0000E616F2B0E606F03EF93F0000EF0
:10260000616F2D0E606F60C584F511EF93F0F0A738
:102610000CEF93F00EEF93F011EF93F0200E050105
:10262000846F85C501F586C502F587C503F588C5A4
:1026300004F5CCECD5F001040210D8A422EF93F0FD
:1026400024EF93F075EF93F005018451D8B42BEF8C
:1026500093F02DEF93F036EF93F084C50AF77A07E5
:10266000D8A07B07000E926F010E916F34C535F52F
:10267000BF0E35261A0E356040EF93F042EF93F00F
:1026800050EF93F00A0E9125016E070E9221026E13
:10269000E80E036EFF0E046E51ECEAF05CEF93F06F
:1026A0000A0E9125016E070E9221026EF00E036E46
:1026B000FF0E046E51ECEAF00501FD0E7A27FF0EC5
:1026C0007B232EC513F52FC514F50A0E156E070EC4
:1026D000166E7AC517F57BC518F5AFECDDF013C59E
:1026E0002EF514C52FF5B8EF99F085C501F586C50F
:1026F00002F587C503F588C504F5CCECD5F001508B
:102700000210D8A486EF93F088EF93F0C2EF93F015
:1027100005018451D8B48FEF93F091EF93F09AEFC5
:1027200093F084C50AF77A07D8A07B07000E926F52
:10273000010E916F34C535F5BF0E35261A0E356082
:10274000A4EF93F0A6EF93F0B4EF93F00A0E912567
:10275000016E070E9221026EEC0E036EFF0E046EE8
:1027600051ECEAF05CEF93F00A0E9125016E070E32
:102770009221026EF40E036EFF0E046E51ECEAF02D
:102780005CEF93F0000E05018D6F000E8E6F800ED2
:102790008F6F3F0E906F000E8A6F000E896F85C598
:1027A00001F586C502F587C503F588C504F5000E59
:1027B000056E000E066E000E076E000E086EC2EC6F
:1027C000DFF0D8B0E6EF93F0E8EF93F0C7EF94F0C6
:1027D000F5EF93F076C58DF577C58EF578C58FF555
:1027E00079C590F50501894B8A2B8DC501F58EC5FC
:1027F00002F58FC503F590C504F5000E056E000EB9
:10280000066E200E076E410E086ED4ECB6F001C5C0
:1028100076F502C577F503C578F504C579F50501A8
:102820007651855D016E77518659026E78518759D0
:10283000036E79518859046EB1ECE7F004BE2CEFB9
:1028400094F004500310021009E1020E015CD8A0BC
:102850002CEF94F02EEF94F0EAEF93F076C51AF592
:1028600077C51BF578C51CF579C51DF585C51EF521
:1028700086C51FF587C520F588C521F5CAECD4F0BB
:10288000D8A045EF94F047EF94F0EAEF93F00501FC
:102890008D51855D016E8E518659026E8F5187591B
:1028A000036E90518859046EB1ECE7F004BE66EFF8
:1028B00094F004500310021007E1020E015CD8B03E
:1028C00064EF94F066EF94F0AEEF94F08DC585F56B
:1028D0008EC586F58FC587F590C588F5C7EF94F04E
:1028E0008DC501F58EC502F58FC503F590C504F5BC
:1028F000000E056E000E066E200E076E410E086E6D
:10290000B0ECBAF001C58DF502C58EF503C58FF5A3
:1029100004C590F505018907D8A08A078D51855D0A
:10292000016E8E518659026E8F518759036E9051F8
:102930008859046EB1ECE7F004BEACEF94F004509B
:102940000310021007E1020E015CD8B0AAEF94F068
:10295000ACEF94F0AEEF94F066EF94F085C51AF505
:1029600086C51BF587C51CF588C51DF58DC51EF5EB
:102970008EC51FF58FC520F590C521F5CAECD4F0A2
:10298000D8A0C5EF94F0C7EF94F070EF94F034C581
:1029900035F5BF0E3526190E3564D1EF94F0D3EF1F
:1029A00094F0D9EF94F034C562F50501636BE2EF62
:1029B00094F0200E34C535F5366A35100501626F86
:1029C0003650636F62C575F575C574F5670E751978
:1029D000D8A4EDEF94F0EFEF94F017EF95F0060127
:1029E000EE51EF11D8A4F7EF94F0F9EF94F0FDEF6A
:1029F00094F0000EEF6F010EEE6FEFBF0AEF95F04F
:102A0000EF5106E1EE05D8B008EF95F00AEF95F02A
:102A100011EF95F0000E0501736F060E726F21EF36
:102A200095F0EEC672F5EFC673F521EF95F006014D
:102A3000EFBF1DEF95F01FEF95F00AEF95F011EF46
:102A400095F0670E05017519D8A429EF95F02BEFC5
:102A500095F054EF95F08AAF39EF95F0FC0E895D53
:102A6000FF0E8A59D8A037EF95F039EF95F052EF65
:102A700095F0FF0E7225356EFF0E7321366E89516B
:102A8000355C3650800A376E8A51800A3758D8A094
:102A90004CEF95F04EEF95F052EF95F0660E746F97
:102AA00054EF95F0650E746F72C56EF573C56FF5D2
:102AB000670E7519D8A45FEF95F061EF95F071EF8F
:102AC00095F0660E7419D8A468EF95F06AEF95F04A
:102AD00073EF95F08ABF71EF95F06FEF95F073EF9C
:102AE00095F06E4B6F2B660E7419D8A47AEF95F0A3
:102AF0007CEF95F09CEF95F08ABF83EF95F081EF26
:102B000095F08FEF95F0000E8D6F000E8E6F800E9A
:102B10008F6F3F0E906F000E8A6F000E896F670EE9
:102B20007519D8B496EF95F098EF95F09CEF95F065
:102B300089516E278A516F23000E8C6F000E8B6FA8
:102B400085C57CF586C57DF587C57EF588C57FF58D
:102B50008DC576F58EC577F58FC578F590C579F575
:102B60002DEF96F07CC501F57DC502F57EC503F518
:102B70007FC504F58DC505F58EC506F58FC507F52E
:102B800090C508F5B0ECBAF001C51AF502C51BF501
:102B900003C51CF504C51DF581ECC7F01AC580F509
:102BA0001BC581F51CC582F51DC583F580C501F5E2
:102BB00081C502F582C503F583C504F547ECD4F061
:102BC00001C570F502C571F57CC51AF57DC51BF50B
:102BD0007EC51CF57FC51DF580C505F581C506F5CB
:102BE00082C507F583C508F58DC501F58EC502F5CB
:102BF0008FC503F590C504F5D4ECB6F001C51EF5FC
:102C000002C51FF503C520F504C521F5ACECE9F0BC
:102C10001AC57CF51BC57DF51CC57EF51DC57FF568
:102C20008DC501F58EC502F58FC503F590C504F578
:102C3000000E056E000E066E200E076E410E086E29
:102C4000B0ECBAF001C58DF502C58EF503C58FF560
:102C500004C590F505018B4B8C2B6E518B5D8C510F
:102C6000800A356E6F51800A3558D8A03AEF96F039
:102C70003CEF96F0B2EF95F08DC501F58EC502F5EB
:102C80008FC503F590C504F5000E056E000E066EA7
:102C9000A00E076E400E086ED4ECB6F001C580F5AC
:102CA00002C581F503C582F504C583F57CC51AF517
:102CB0007DC51BF57EC51CF57FC51DF580C51EF5C0
:102CC00081C51FF582C520F583C521F5CAECD4F076
:102CD000D8B06DEF96F06FEF96F07AEF96F0000EA9
:102CE0000501806F000E816F000E826F000E836FF2
:102CF000A3EF96F07CC501F57DC502F57EC503F511
:102D00007FC504F580C505F581C506F582C507F5C3
:102D100083C508F5C2ECDFF0D8A091EF96F093EFF1
:102D200096F0A3EF96F0050170B199EF96F09BEF46
:102D300096F0A3EF96F0000E806F000E816F000EEC
:102D4000826F000E836F85C501F586C502F587C5C4
:102D500003F588C504F580C505F581C506F582C56E
:102D600007F583C508F565ECB2F001C57CF502C531
:102D70007DF503C57EF504C57FF57CC51AF57DC5D7
:102D80001BF57EC51CF57FC51DF5000E056E000EFA
:102D9000066E200E076E410E086E76C501F577C5EA
:102DA00002F578C503F579C504F5D4ECB6F001C594
:102DB0001EF502C51FF503C520F504C521F5CAECB3
:102DC000D4F0D8A0E6EF96F0E8EF96F011EF97F088
:102DD0000501894B8A2B76C501F577C502F578C5C3
:102DE00003F579C504F5000E056E000E066E200E83
:102DF000076E410E086ED4ECB6F001C576F502C53B
:102E000077F503C578F504C579F5660E05017419E3
:102E1000D8A40DEF97F00FEF97F011EF97F06E4BEE
:102E20006F2B76C58DF577C58EF578C58FF579C58D
:102E300090F5650E05017419D8B421EF97F023EFD2
:102E400097F029EF97F089C56CF58AC56DF52DEFE0
:102E500097F0000E6D6F000E6C6F6B6B000E6A6F5B
:102E6000000E696F000E8C6F000E8B6F44EF98F0B0
:102E70007CC501F57DC502F57EC503F57FC504F56A
:102E80008DC505F58EC506F58FC507F590C508F506
:102E9000B0ECBAF001C51AF502C51BF503C51CF567
:102EA00004C51DF581ECC7F01AC580F51BC581F579
:102EB0001CC582F51DC583F580C501F581C502F5E8
:102EC00082C503F583C504F547ECD4F002BE74EF68
:102ED00097F0025007E10A0E015CD8B072EF97F04C
:102EE00074EF97F084EF97F080C501F581C502F586
:102EF00082C503F583C504F547ECD4F001C570F530
:102F000002C571F589EF97F0000E0501716F090E8A
:102F1000706F050170517111D8A491EF97F093EF84
:102F200097F0B0EF97F0670E7519D8A49AEF97F065
:102F30009CEF97F0B0EF97F06DBFA3EF97F0A1EF84
:102F400097F0B0EF97F00601F0B9A9EF97F0ABEF6B
:102F500097F0B0EF97F00501694B6A2BF8EF97F007
:102F600005016B51D8A4B7EF97F0B9EF97F0E1EFF7
:102F700097F06DBFC0EF97F0BEEF97F0E1EF97F0DD
:102F80000A0E9125D96E070E9221DA6E2E0EDF6E93
:102F9000914B922B7A07D8A07B07010E6B6FE1EF64
:102FA00097F00A0E9125D96E070E9221DA6E300E37
:102FB000DF6E914B922B7A07D8A07B076907D8A0C8
:102FC0006A0769516A11D8A4E8EF97F0EAEF97F021
:102FD000D1EF97F00A0E9125D96E070E9221DA6E85
:102FE0007051300FDF6E914B922B7A07D8A07B0780
:102FF0007CC51AF57DC51BF57EC51CF57FC51DF585
:1030000080C505F581C506F582C507F583C508F5B8
:103010008DC501F58EC502F58FC503F590C504F584
:10302000D4ECB6F001C51EF502C51FF503C520F5A9
:1030300004C521F5ACECE9F01AC57CF51BC57DF59E
:103040001CC57EF51DC57FF58DC501F58EC502F544
:103050008FC503F590C504F5000E056E000E066ED3
:10306000200E076E410E086EB0ECBAF001C58DF56A
:1030700002C58EF503C58FF504C590F505016C07F3
:10308000D8A06D078B4B8C2B6E518B5D8C51800AB9
:10309000356E6F51800A3558D8B051EF98F053EF24
:1030A00098F061EF98F092BF5FEF98F0925109E1CC
:1030B0004B0E915DD8A05FEF98F061EF98F038EF7C
:1030C00097F06B51D8A467EF98F069EF98F07CEF18
:1030D00098F00601F0A96FEF98F071EF98F07CEF8F
:1030E00098F00A0E05019125D96E070E9221DA6E2D
:1030F0002E0EDF6E914B922B000E05018C6F4F0E42
:103100008B6F0A0E8B25D96E070E8C21DA6EDF6A63
:10311000650E7419D8A48FEF98F091EF98F02AEF0C
:1031200099F0686B8ABF99EF98F097EF98F09FEF4E
:1031300098F0010E686F896D8A1FD8B08A2B000E37
:10314000736F020E726FD0EF98F08B07D8A08C07C8
:103150000A0E8B25D96E070E8C21DA6E89C501F512
:103160008AC502F5000E046E0A0E036E15ECDFF040
:103170000150300FDF6E89C501F58AC502F5000EDA
:10318000046E0A0E036E91ECDCF001C589F502C5F0
:103190008AF505017207D8A073077A07D8A07B07C4
:1031A00089518A11D8A4D7EF98F0D9EF98F0A5EFFC
:1031B00098F073BFE6EF98F0735106E17205D8B04E
:1031C000E4EF98F0E6EF98F0A5EF98F08B07D8A021
:1031D0008C076851D8A4EFEF98F0F1EF98F0F7EF73
:1031E00098F0000E656F2B0E646FFBEF98F0000EE9
:1031F000656F2D0E646F0A0E8B25D96E070E8C211C
:10320000DA6E64C5DFF47A07D8A07B078B07D8A0F5
:103210008C0734C535F5BF0E3526190E356413EF0E
:1032200099F015EF99F01BEF99F0000E676F650E9E
:10323000666F1FEF99F0000E676F450E666F0A0EFE
:103240008B25D96E070E8C21DA6E66C5DFF47A07FE
:10325000D8A07B070A0E356E070E366E9151355E8B
:103260009251365A8B513524016E8C513620026EA4
:103270000A0E036E070E046E91C505F592C506F59C
:1032800081ECE8F0050191518B5D916F92518C5961
:10329000926F8451D8A44FEF99F052EF99F0010E3C
:1032A00053EF99F0000E8B6F8C6B0601F0A35BEF70
:1032B00099F05DEF99F08CEF99F06DEF99F091072F
:1032C000D8A092070A0E9125D96E070E9221DA6EC8
:1032D000300EDF6E7A07D8A07B0705017A518B5D2F
:1032E0008C51800A356E7B51800A3558D8B07BEFFF
:1032F00099F07DEF99F08CEF99F091518B5D8C51A5
:10330000800A356E9251800A3558D8A08AEF99F01C
:103310008CEF99F05FEF99F005018451D8B493EFE9
:1033200099F095EF99F0A0EF99F09107D8A0920746
:103330000A0E9125D96E070E9221DA6E84C5DFF44C
:103340008B517A5F8C517B5B2EC513F52FC514F51D
:103350000A0E9125156E070E9221166E7AC517F585
:103360007BC518F5AFECDDF013C52EF514C52FF5B0
:10337000120006015B6B2FC65CF630C65DF631C6E7
:103380005EF632C65FF65FBFCAEF99F0C8EF99F0FC
:10339000DEEF99F0010E5B6F5CC600F65DC601F6CC
:1033A0005EC602F65FC603F6C7ECEAF000C65CF63E
:1033B00001C65DF602C65EF603C65FF6000E0601A4
:1033C000696F000E686FECC651F6EDC652F65B51A0
:1033D000D8A4EDEF99F0EFEF99F0F6EF99F0F0A5A2
:1033E000F4EF99F0F6EF99F00CEF9AF05B51D8A456
:1033F000FCEF99F0FEEF99F004EF9AF0000E386FB1
:103400002B0E376F08EF9AF0000E386F2D0E376FC6
:1034100037C65BF615EF9AF0F0A711EF9AF013EFAD
:103420009AF015EF9AF0200E5B6F5CC600F65DC651
:1034300001F65EC602F65FC603F64CECD5F0060157
:1034400000050111D8A427EF9AF029EF9AF079EF3F
:103450009AF05B51D8B42FEF9AF031EF9AF03AEF2F
:103460009AF05BC60AF75107D8A05207000E696FA1
:10347000010E686F33C634F6BF0E34271A0E34615E
:1034800044EF9AF046EF9AF054EF9AF00A0E68254E
:10349000006F070E6921016FE80E026FFF0E036FC8
:1034A00032ECEAF060EF9AF00A0E6825006F070E22
:1034B0006921016FF00E026FFF0E036F32ECEAF02C
:1034C0000601FD0E5127FF0E52232DC612F62EC601
:1034D00013F60A0E146F070E156F51C616F652C674
:1034E00017F6F2ECDCF012C62DF613C62EF6B3EF8B
:1034F000A0F05CC600F65DC601F65EC602F65FC6C9
:1035000003F64CECD5F0060100510111D8A48BEF65
:103510009AF08DEF9AF0C6EF9AF05B51D8B493EF22
:103520009AF095EF9AF09EEF9AF05BC60AF7510772
:10353000D8A05207000E696F010E686F33C634F6CB
:10354000BF0E34271A0E3461A8EF9AF0AAEF9AF052
:10355000B8EF9AF00A0E6825006F070E6921016F17
:10356000EC0E026FFF0E036F32ECEAF060EF9AF0A0
:103570000A0E6825006F070E6921016FF40E026FB5
:10358000FF0E036F32ECEAF060EF9AF0000E646F0A
:10359000000E656F800E666F3F0E676F000E616FE5
:1035A000000E606F5CC600F65DC601F65EC602F6F0
:1035B0005FC603F6000E046F000E056F000E066F67
:1035C000000E076F6CECDFF00601D8B0EAEF9AF05E
:1035D000ECEF9AF0CEEF9BF0F8EF9AF04DC664F660
:1035E0004EC665F64FC666F650C667F6604B612B51
:1035F00064C600F665C601F666C602F667C603F63F
:10360000000E046F000E056F200E066F410E076F4F
:10361000C0ECB4F000C64DF601C64EF602C64FF639
:1036200003C650F606014D515C5D006F4E515D5969
:10363000016F4F515E59026F50515F59036F85EC16
:10364000E7F0060103BF30EF9BF0035102110111B7
:1036500009E1020E005DD8A030EF9BF032EF9BF045
:10366000EEEF9AF04DC619F64EC61AF64FC61BF687
:1036700050C61CF65CC61DF65DC61EF65EC61FF67D
:103680005FC620F6C4ECD3F00601D8A04AEF9BF049
:103690004CEF9BF0EEEF9AF064515C5D006F65516A
:1036A0005D59016F66515E59026F67515F59036F33
:1036B00085ECE7F0060103BF6BEF9BF003510211AD
:1036C000011107E1020E005DD8B069EF9BF06BEFCE
:1036D0009BF0B4EF9BF064C65CF665C65DF666C60B
:1036E0005EF667C65FF6CEEF9BF064C600F665C671
:1036F00001F666C602F667C603F6000E046F000EFA
:10370000056F200E066F410E076FE7ECB8F000C69C
:1037100064F601C665F602C666F603C667F60601DC
:103720006007D8A0610764515C5D006F65515D5909
:10373000016F66515E59026F67515F59036F85ECE7
:10374000E7F0060103BFB2EF9BF003510211011134
:1037500007E1020E005DD8B0B0EF9BF0B2EF9BF036
:10376000B4EF9BF06BEF9BF05CC619F65DC61AF6E2
:103770005EC61BF65FC61CF664C61DF665C61EF661
:1037800066C61FF667C620F6C4ECD3F00601D8A0C3
:10379000CCEF9BF0CEEF9BF075EF9BF033C634F689
:1037A000BF0E3427190E3465D8EF9BF0DAEF9BF08B
:1037B000DFEF9BF033C639F63A6BE7EF9BF0200E54
:1037C00033C634F6356B3411396F35513A6F39C61B
:1037D0004CF64CC64BF6670E4C19D8A4F2EF9BF092
:1037E000F4EF9BF01AEF9CF0EE51EF11D8A4FBEF31
:1037F0009BF0FDEF9BF001EF9CF0000EEF6F010ED0
:10380000EE6FEFBF0EEF9CF0EF5106E1EE05D8B082
:103810000CEF9CF00EEF9CF014EF9CF0000E4A6F42
:10382000060E496F23EF9CF0EEC649F6EFC64AF646
:1038300023EF9CF0EFBF1FEF9CF021EF9CF00EEF09
:103840009CF014EF9CF0670E4C19D8A42AEF9CF062
:103850002CEF9CF055EF9CF061AF3AEF9CF0FC0E22
:10386000605DFF0E6159D8A038EF9CF03AEF9CF0F4
:1038700053EF9CF0FF0E4925346FFF0E4A21356F40
:103880006051345D3551800A366F6151800A365976
:10389000D8A04DEF9CF04FEF9CF053EF9CF0660EDC
:1038A0004B6F55EF9CF0650E4B6F49C645F64AC607
:1038B00046F6670E4C19D8A460EF9CF062EF9CF0BE
:1038C00072EF9CF0660E4B19D8A469EF9CF06BEF79
:1038D0009CF074EF9CF061BF72EF9CF070EF9CF075
:1038E00074EF9CF0454B462B660E4B19D8A47BEF2A
:1038F0009CF07DEF9CF09DEF9CF061BF84EF9CF00D
:1039000082EF9CF090EF9CF0000E646F000E656FEC
:10391000800E666F3F0E676F000E616F000E606F66
:10392000670E4C19D8B497EF9CF099EF9CF09DEF7F
:103930009CF06051452761514623000E636F000ED5
:10394000626F5CC653F65DC654F65EC655F65FC63A
:1039500056F664C64DF665C64EF666C64FF667C6A1
:1039600050F62FEF9DF053C600F654C601F655C62B
:1039700002F656C603F664C604F665C605F666C6C4
:1039800006F667C607F6E7ECB8F000C619F601C6FA
:103990001AF602C61BF603C61CF676ECC6F019C66C
:1039A00057F61AC658F61BC659F61CC65AF657C61D
:1039B00000F658C601F659C602F65AC603F640ECA0
:1039C000D3F000C647F601C648F653C619F654C6EA
:1039D0001AF655C61BF656C61CF657C604F658C648
:1039E00005F659C606F65AC607F664C600F665C659
:1039F00001F666C602F667C603F6C0ECB4F000C670
:103A00001DF601C61EF602C61FF603C620F640ECE0
:103A1000E9F019C653F61AC654F61BC655F61CC66D
:103A200056F664C600F665C601F666C602F667C6B7
:103A300003F6000E0601046F000E056F200E066FE0
:103A4000410E076FE7ECB8F000C664F601C665F6F4
:103A500002C666F603C667F60601624B632B455144
:103A6000625D6351800A346F4651800A3459D8A090
:103A70003CEF9DF03EEF9DF0B3EF9CF064C600F686
:103A800065C601F666C602F667C603F6000E046F49
:103A9000000E056FA00E066F400E076FC0ECB4F06D
:103AA00000C657F601C658F602C659F603C65AF6BE
:103AB00053C619F654C61AF655C61BF656C61CF65A
:103AC00057C61DF658C61EF659C61FF65AC620F62A
:103AD000C4ECD3F00601D8B070EF9DF072EF9DF00A
:103AE0007CEF9DF0000E576F000E586F000E596F5F
:103AF000000E5A6FA5EF9DF053C600F654C601F6AE
:103B000055C602F656C603F657C604F658C605F65D
:103B100059C606F65AC607F66CECDFF00601D8A0C7
:103B200094EF9DF096EF9DF0A5EF9DF047B19BEFD0
:103B30009DF09DEF9DF0A5EF9DF0000E576F000EDC
:103B4000586F000E596F000E5A6F5CC600F65DC6C6
:103B500001F65EC602F65FC603F657C604F658C6FF
:103B600005F659C606F65AC607F609ECB0F000C6C7
:103B700053F601C654F602C655F603C656F653C6AA
:103B800019F654C61AF655C61BF656C61CF6000E94
:103B90000601046F000E056F200E066F410E076FC1
:103BA0004DC600F64EC601F64FC602F650C603F6E5
:103BB000C0ECB4F000C61DF601C61EF602C61FF624
:103BC00003C620F6C4ECD3F00601D8A0EAEF9DF0BE
:103BD000ECEF9DF014EF9EF0604B612B4DC600F6AC
:103BE0004EC601F64FC602F650C603F6000E046F2D
:103BF000000E056F200E066F410E076FC0ECB4F08B
:103C000000C64DF601C64EF602C64FF603C650F684
:103C1000660E06014B19D8A410EF9EF012EF9EF02D
:103C200014EF9EF0454B462B4DC664F64EC665F626
:103C30004FC666F650C667F6650E4B19D8B423EF2B
:103C40009EF025EF9EF02BEF9EF060C643F661C616
:103C500044F62FEF9EF0000E446F000E436F426B50
:103C6000000E416F000E406F000E636F000E626F1A
:103C700044EF9FF053C600F654C601F655C602F64F
:103C800056C603F664C604F665C605F666C606F6AD
:103C900067C607F6E7ECB8F000C619F601C61AF6D3
:103CA00002C61BF603C61CF676ECC6F019C657F61C
:103CB0001AC658F61BC659F61CC65AF657C600F661
:103CC00058C601F659C602F65AC603F640ECD3F0C0
:103CD000060101BF77EF9EF0015107E10A0E005D7A
:103CE000D8B075EF9EF077EF9EF087EF9EF057C645
:103CF00000F658C601F659C602F65AC603F640EC5D
:103D0000D3F000C647F601C648F68BEF9EF0000ED2
:103D1000486F090E476F060147514811D8A493EF29
:103D20009EF095EF9EF0B0EF9EF0670E4C19D8A470
:103D30009CEF9EF09EEF9EF0B0EF9EF044BFA5EF8B
:103D40009EF0A3EF9EF0B0EF9EF0F0B9AAEF9EF0C8
:103D5000ACEF9EF0B0EF9EF0404B412BF7EF9EF0A2
:103D60004251D8A4B6EF9EF0B8EF9EF0E0EF9EF07F
:103D700044BFBFEF9EF0BDEF9EF0E0EF9EF00A0E55
:103D80006825D96E070E6921DA6E2E0EDF6E684B3C
:103D9000692B5107D8A05207010E426FE0EF9EF049
:103DA0000A0E6825D96E070E6921DA6E300EDF6EB5
:103DB000684B692B5107D8A052074007D8A041078C
:103DC00040514111D8A4E7EF9EF0E9EF9EF0D0EF0B
:103DD0009EF00A0E6825D96E070E6921DA6E4751EA
:103DE000300FDF6E684B692B5107D8A0520753C6BE
:103DF00019F654C61AF655C61BF656C61CF657C613
:103E000004F658C605F659C606F65AC607F664C63D
:103E100000F665C601F666C602F667C603F6C0EC94
:103E2000B4F000C61DF601C61EF602C61FF603C694
:103E300020F640ECE9F019C653F61AC654F61BC634
:103E400055F61CC656F664C600F665C601F666C68B
:103E500002F667C603F6000E0601046F000E056F3A
:103E6000200E066F410E076FE7ECB8F000C664F64F
:103E700001C665F602C666F603C667F60601430785
:103E8000D8A04407624B632B4551625D6351800AA1
:103E9000346F4651800A3459D8B051EF9FF053EF38
:103EA0009FF061EF9FF069BF5FEF9FF0695109E1FB
:103EB0004B0E685DD8A05FEF9FF061EF9FF03AEF87
:103EC0009EF04251D8A467EF9FF069EF9FF07AEF20
:103ED0009FF0F0A96EEF9FF070EF9FF07AEF9FF0E8
:103EE0000A0E6825D96E070E6921DA6E2E0EDF6E76
:103EF000684B692B000E636F4F0E626F0A0E6225CE
:103F0000D96E070E6321DA6EDF6A650E4B19D8A4ED
:103F10008CEF9FF08EEF9FF028EFA0F03F6B61BF1A
:103F200096EF9FF094EF9FF09CEF9FF0010E3F6F94
:103F3000606D611FD8B0612B000E4A6F020E496F91
:103F4000CEEF9FF06207D8A063070A0E6225D96EF4
:103F5000070E6321DA6E60C600F661C601F6000E38
:103F6000036F0A0E026F66ECDEF006010051300F9F
:103F7000DF6E60C600F661C601F6000E036F0A0E22
:103F8000026FCEECDBF000C660F601C661F60601FA
:103F90004907D8A04A075107D8A0520760516111BC
:103FA000D8A4D5EF9FF0D7EF9FF0A2EF9FF04ABFC4
:103FB000E4EF9FF04A5106E14905D8B0E2EF9FF0E7
:103FC000E4EF9FF0A2EF9FF06207D8A063073F5194
:103FD000D8A4EDEF9FF0EFEF9FF0F5EF9FF0000E0C
:103FE0003C6F2B0E3B6FF9EF9FF0000E3C6F2D0ED8
:103FF0003B6F0A0E6225D96E070E6321DA6E3BC64F
:10400000DFF45107D8A052076207D8A0630733C670
:1040100034F6BF0E3427190E346511EFA0F013EFFC
:10402000A0F019EFA0F0000E3E6F650E3D6F1DEF82
:10403000A0F0000E3E6F450E3D6F0A0E6225D96E50
:10404000070E6321DA6E3DC6DFF45107D8A0520790
:104050000A0E346F070E356F6851345F6951355B56
:1040600062513425006F63513521016F0A0E026FD2
:10407000070E036F68C604F669C605F606ECE8F09D
:1040800006016851625D686F69516359696F5B51E0
:10409000D8A44DEFA0F050EFA0F0010E51EFA0F02A
:1040A000000E626F636BF0A358EFA0F05AEFA0F020
:1040B00088EFA0F06AEFA0F06807D8A069070A0EA1
:1040C0006825D96E070E6921DA6E300EDF6E510752
:1040D000D8A052075151625D6351800A346F52512A
:1040E000800A3459D8B077EFA0F079EFA0F088EFCC
:1040F000A0F06851625D6351800A346F6951800A93
:104100003459D8A086EFA0F088EFA0F05CEFA0F0C3
:104110005B51D8B48EEFA0F090EFA0F09BEFA0F031
:104120006807D8A069070A0E6825D96E070E6921AD
:10413000DA6E5BC6DFF46251515F6351525B2DC68C
:1041400012F62EC613F60A0E6825146F070E6921A3
:10415000156F51C616F652C617F6F2ECDCF012C611
:104160002DF613C62EF6120034C535F5BF0E3526D2
:10417000190E3564BEEFA0F0C1EFA0F0010EC2EF42
:10418000A0F0000E346E0501866B30C582F531C596
:1041900083F532C584F533C585F585BFD4EFA0F02E
:1041A000D2EFA0F0E8EFA0F0010E866F82C501F516
:1041B00083C502F584C503F585C504F556ECEBF01F
:1041C00001C582F502C583F503C584F504C585F5EF
:1041D000000E0501906F000E8F6FECC680F5EDC6E6
:1041E00081F58651D8A4F7EFA0F0F9EFA0F001EF28
:1041F000A1F00601F0A5FFEFA0F001EFA1F018EF8C
:10420000A1F005018651D8A408EFA1F00AEFA1F0B2
:1042100010EFA1F0000E656F2B0E646F14EFA1F08C
:10422000000E656F2D0E646F64C586F522EFA1F058
:10423000F0A71DEFA1F01FEFA1F022EFA1F0200EDB
:104240000501866F82C501F583C502F584C503F5B6
:1042500085C504F5CCECD5F001040210D8A433EFE9
:10426000A1F035EFA1F082EFA1F005018651D8B49D
:104270003CEFA1F03EEFA1F047EFA1F086C50AF7B1
:10428000000E906F010E8F6F8007D8A08107345009
:10429000D8B44DEFA1F04FEFA1F05DEFA1F00A0E01
:1042A0008F25016E070E9021026EE80E036EFF0E41
:1042B000046E51ECEAF069EFA1F00A0E8F25016E51
:1042C000070E9021026EF00E036EFF0E046E51EC8D
:1042D000EAF00501FD0E8027FF0E81232EC513F5A0
:1042E0002FC514F50A0E156E070E166E80C517F54C
:1042F00081C518F5AFECDDF013C52EF514C52FF50B
:1043000017EFA7F082C501F583C502F584C503F553
:1043100085C504F5CCECD5F001500210D8A493EF7C
:10432000A1F095EFA1F0CBEFA1F005018651D8B433
:104330009CEFA1F09EEFA1F0A7EFA1F086C50AF7D0
:10434000000E906F010E8F6F8007D8A08107345048
:10435000D8B4ADEFA1F0AFEFA1F0BDEFA1F00A0E20
:104360008F25016E070E9021026EEC0E036EFF0E7C
:10437000046E51ECEAF069EFA1F00A0E8F25016E90
:10438000070E9021026EF40E036EFF0E046E51ECC8
:10439000EAF069EFA1F0000E0501896F000E8A6F47
:1043A000800E8B6F3F0E8C6F000E776F000E766F56
:1043B00082C501F583C502F584C503F585C504F5FD
:1043C000000E056E000E066E000E076E000E086EE3
:1043D000C2ECDFF0D8B0EFEFA1F0F1EFA1F074EF95
:1043E000A2F010EFA2F089C501F58AC502F58BC5D0
:1043F00003F58CC504F5000E056E000E066E000E6A
:10440000076E400E086ED4ECB6F001C589F502C502
:104410008AF503C58BF504C58CF50501764B772B22
:1044200082C51AF583C51BF584C51CF585C51DF528
:10443000000E056E000E066E000E076E400E086E32
:1044400089C501F58AC502F58BC503F58CC504F550
:10445000D4ECB6F001C51EF502C51FF503C520F565
:1044600004C521F5CAECD4F0D8B039EFA2F03BEF87
:10447000A2F0F3EFA1F05BEFA2F089C501F58AC5C8
:1044800002F58BC503F58CC504F5000E056E000E14
:10449000066E000E076E400E086EB0ECBAF001C555
:1044A00089F502C58AF503C58BF504C58CF50501B0
:1044B0007607D8A0770782C51AF583C51BF584C592
:1044C0001CF585C51DF589C51EF58AC51FF58BC56B
:1044D00020F58CC521F5CAECD4F0D8A072EFA2F07B
:1044E00074EFA2F03DEFA2F00601EFBF7AEFA2F069
:1044F0007CEFA2F082EFA2F0EEC671F5EFC672F586
:1045000087EFA2F0000E0501726F4A0E716F010E67
:10451000050171256D6F000E72216E6F000E8E6F9A
:10452000000E8D6F82C578F583C579F584C57AF55F
:1045300085C57BF589C560F58AC561F58BC562F5D2
:104540008CC563F51FEFA3F078C501F579C502F5B9
:104550007AC503F57BC504F589C505F58AC506F559
:104560008BC507F58CC508F5B0ECBAF001C51AF596
:1045700002C51BF503C51CF504C51DF581ECC7F08C
:104580001AC57CF51BC57DF51CC57EF51DC57FF5DF
:104590007CC501F57DC502F57EC503F57FC504F533
:1045A00047ECD4F001C587F502C588F578C51AF542
:1045B00079C51BF57AC51CF57BC51DF589C505F5C3
:1045C0008AC506F58BC507F58CC508F57CC501F5D0
:1045D0007DC502F57EC503F57FC504F5D4ECB6F0C4
:1045E00001C51EF502C51FF503C520F504C521F55B
:1045F000ACECE9F01AC578F51BC579F51CC57AF560
:104600001DC57BF589C501F58AC502F58BC503F586
:104610008CC504F5000E056E000E066E800E076E4A
:10462000410E086EB0ECBAF001C589F502C58AF5F5
:1046300003C58BF504C58CF505018D4B8E2B6D5193
:104640008D5D8E51800A356E6E51800A3558D8A026
:104650002CEFA3F02EEFA3F0A4EFA2F089C501F593
:104660008AC502F58BC503F58CC504F5000E056EF1
:10467000000E066E000E076E410E086ED4ECB6F00A
:1046800001C57CF502C57DF503C57EF504C57FF542
:1046900078C51AF579C51BF57AC51CF57BC51DF5DE
:1046A0007CC51EF57DC51FF57EC520F57FC521F5AE
:1046B000CAECD4F0D8B05FEFA3F061EFA3F06CEFD9
:1046C000A3F0000E05017C6F000E7D6F000E7E6F63
:1046D000000E7F6F95EFA3F078C501F579C502F55F
:1046E0007AC503F57BC504F57CC505F57DC506F5E2
:1046F0007EC507F57FC508F5C2ECDFF0D8A083EFD3
:10470000A3F085EFA3F095EFA3F0050187B18BEF40
:10471000A3F08DEFA3F095EFA3F0000E7C6F000ED9
:104720007D6F000E7E6F000E7F6F82C501F583C521
:1047300002F584C503F585C504F57CC505F57DC581
:1047400006F57EC507F57FC508F565ECB2F001C535
:1047500078F502C579F503C57AF504C57BF560C522
:1047600089F561C58AF562C58BF563C58CF5000EC8
:104770000501706F000E6F6F736B000E756F000E8A
:10478000746F000E8E6F000E8D6F11EFA5F078C55F
:1047900001F579C502F57AC503F57BC504F589C530
:1047A00005F58AC506F58BC507F58CC508F5B0EC8F
:1047B000BAF001C51AF502C51BF503C51CF504C501
:1047C0001DF581ECC7F01AC57CF51BC57DF51CC530
:1047D0007EF51DC57FF57CC501F57DC502F57EC55D
:1047E00003F57FC504F547ECD4F001C587F502C594
:1047F00088F5050187518811D8A401EFA4F003EFD3
:10480000A4F017EFA4F070BF0AEFA4F008EFA4F033
:1048100017EFA4F00601F0B910EFA4F012EFA4F026
:1048200017EFA4F00501744B752BA2EFA4F005015E
:104830007351D8A41EEFA4F020EFA4F048EFA4F029
:1048400070BF27EFA4F025EFA4F048EFA4F00A0E04
:104850008F25D96E070E9021DA6E2E0EDF6E8F4BEC
:10486000902B8007D8A08107010E736F48EFA4F04A
:104870000A0E8F25D96E070E9021DA6E300EDF6E8C
:104880008F4B902B8007D8A081077407D8A075079D
:1048900074517511D8A44FEFA4F051EFA4F038EF84
:1048A000A4F088BF5DEFA4F0885109E10A0E875D8E
:1048B000D8A05DEFA4F05FEFA4F067EFA4F0570E6F
:1048C0008725876F000E8821886F6DEFA4F0300E6A
:1048D0008725876F000E8821886F3450D8B473EF16
:1048E000A4F075EFA4F095EFA4F087C535F5200E80
:1048F00035129F0E35261A0E356081EFA4F083EF36
:10490000A4F095EFA4F087C535F59F0E3526190E56
:1049100035648DEFA4F08FEFA4F091EFA4F095EF44
:10492000A4F05F0E8715876F886B0A0E8F25D96EEE
:10493000070E9021DA6E87C5DFF48F4B902B80072E
:10494000D8A0810778C51AF579C51BF57AC51CF57D
:104950007BC51DF589C505F58AC506F58BC507F527
:104960008CC508F57CC501F57DC502F57EC503F54E
:104970007FC504F5D4ECB6F001C51EF502C51FF5E0
:1049800003C520F504C521F5ACECE9F01AC578F5AE
:104990001BC579F51CC57AF51DC57BF589C501F5E3
:1049A0008AC502F58BC503F58CC504F5000E056EAE
:1049B000000E066E800E076E410E086EB0ECBAF067
:1049C00001C589F502C58AF503C58BF504C58CF5CB
:1049D00005016F07D8A070078D4B8E2B0601EFBF26
:1049E000F6EFA4F0F4EFA4F011EFA5F078C501F50F
:1049F00079C502F57AC503F57BC504F5000E056E91
:104A0000000E066E000E076E000E086EC2ECDFF0A0
:104A1000D8A00DEFA5F00FEFA5F011EFA5F02FEF47
:104A2000A5F005016D518D5D8E51800A356E6E5178
:104A3000800A3558D8B01FEFA5F021EFA5F02FEF71
:104A4000A5F090BF2DEFA5F0905109E14B0E8F5DC1
:104A5000D8A02DEFA5F02FEFA5F0C7EFA3F005012B
:104A60007351D8A436EFA5F038EFA5F07FEFA5F08D
:104A700074517511D8B43FEFA5F041EFA5F07FEF69
:104A8000A5F00601EFBF4DEFA5F0EF5108E1EE05EF
:104A9000D8A04DEFA5F04FEFA5F07FEFA5F00501F1
:104AA00090BF5EEFA5F0905107E14B0E8F5DD8B03F
:104AB0005CEFA5F05EEFA5F07FEFA5F0010E736F40
:104AC0000A0E8F25D96E070E9021DA6E2E0EDF6E3C
:104AD0008F4B902B8007D8A081077FEFA5F00A0E9F
:104AE0008F25D96E070E9021DA6E300EDF6E8F4B58
:104AF000902B8007D8A081077407D8A075070501FF
:104B000074517511D8B487EFA5F089EFA5F097EF30
:104B1000A5F090BF95EFA5F0905109E14B0E8F5D88
:104B2000D8A095EFA5F097EFA5F06FEFA5F0735122
:104B3000D8A49DEFA5F09FEFA5F0B2EFA5F0060178
:104B4000F0A9A5EFA5F0A7EFA5F0B2EFA5F00A0E2A
:104B500005018F25D96E070E9021DA6E2E0EDF6EBD
:104B60008F4B902B0A0E05018F25D96E070E9021D1
:104B7000DA6EDF6A000E8E6F4F0E8D6F0A0E8D2576
:104B8000D96E070E8E21DA6EDF6A6C6B77BFCDEFC0
:104B9000A5F0CBEFA5F0D3EFA5F0010E6C6F766D0D
:104BA000771FD8B0772B000E726F010E716F04EF74
:104BB000A6F08D07D8A08E070A0E8D25D96E070E98
:104BC0008E21DA6E76C501F577C502F5000E046E0A
:104BD0000A0E036E15ECDFF00150300FDF6E76C564
:104BE00001F577C502F5000E046E0A0E036E91EC16
:104BF000DCF001C576F502C577F505017107D8A08F
:104C000072078007D8A0810776517711D8A40BEFDF
:104C1000A6F00DEFA6F0D9EFA5F072BF1AEFA6F03F
:104C2000725106E17105D8B018EFA6F01AEFA6F0A0
:104C3000D9EFA5F08D07D8A08E076C51D8A423EF2B
:104C4000A6F025EFA6F02BEFA6F0000E676F2B0E57
:104C5000666F2FEFA6F0000E676F2D0E666F0A0EBF
:104C60008D25D96E070E8E21DA6E66C5DFF48007BA
:104C7000D8A081078D07D8A08E073450D8A443EF61
:104C8000A6F045EFA6F04BEFA6F0000E696F700E90
:104C9000686F4FEFA6F0000E696F500E686F0A0E36
:104CA0008D25D96E070E8E21DA6E68C5DFF4800778
:104CB000D8A081070A0E356E070E366E8F51355E0D
:104CC0009051365A8D513524016E8E513620026E28
:104CD0000A0E036E070E046E8FC505F590C506F526
:104CE00081ECE8F005018F518D5D8F6F90518E59E9
:104CF000906F8651D8A47FEFA6F081EFA6F087EFE2
:104D0000A6F0000E8E6F020E8D6F8BEFA6F0000ED8
:104D10008E6F030E8D6F0601F0A391EFA6F093EF57
:104D2000A6F0C2EFA6F0A3EFA6F08F07D8A09007D9
:104D30000A0E8F25D96E070E9021DA6E300EDF6EC7
:104D40008007D8A08107050180518D5D8E51800AB2
:104D5000356E8151800A3558D8B0B1EFA6F0B3EF67
:104D6000A6F0C2EFA6F08F518D5D8E51800A356E90
:104D70009051800A3558D8A0C0EFA6F0C2EFA6F037
:104D800095EFA6F03450D8A4C8EFA6F0CAEFA6F06D
:104D9000D1EFA6F0000E05016B6F780E6A6FD6EFAB
:104DA000A6F0000E05016B6F580E6A6F8F07D8A032
:104DB00090070A0E8F25D96E070E9021DA6E6AC50C
:104DC000DFF48F07D8A090070A0E8F25D96E070E43
:104DD0009021DA6E300EDF6E8651D8B4F2EFA6F075
:104DE000F4EFA6F0FFEFA6F08F07D8A090070A0E09
:104DF0008F25D96E070E9021DA6E86C5DFF48D51AE
:104E0000805F8E51815B2EC513F52FC514F50A0EF8
:104E10008F25156E070E9021166E80C517F581C57A
:104E200018F5AFECDDF013C52EF514C52FF5120003
:104E300033C634F6BF0E06013427190E346523EF4E
:104E4000A7F026EFA7F0010E27EFA7F0000E336FB3
:104E50005C6B2FC658F630C659F631C65AF632C6C4
:104E60005BF65BBF38EFA7F036EFA7F04CEFA7F08B
:104E7000010E5C6F58C600F659C601F65AC602F616
:104E80005BC603F6C7ECEAF000C658F601C659F651
:104E900002C65AF603C65BF6000E0601666F000EE8
:104EA000656FECC656F6EDC657F65C51D8A45BEFBD
:104EB000A7F05DEFA7F064EFA7F0F0A562EFA7F011
:104EC00064EFA7F07AEFA7F05C51D8A46AEFA7F0DF
:104ED0006CEFA7F072EFA7F0000E3B6F2B0E3A6F4E
:104EE00076EFA7F0000E3B6F2D0E3A6F3AC65CF6D8
:104EF00083EFA7F0F0A77FEFA7F081EFA7F083EF94
:104F0000A7F0200E5C6F58C600F659C601F65AC6C7
:104F100002F65BC603F64CECD5F006010005011164
:104F2000D8A495EFA7F097EFA7F0E3EFA7F05C51B7
:104F3000D8B49DEFA7F09FEFA7F0A8EFA7F05CC64D
:104F40000AF7000E666F010E656F5607D8A0570767
:104F50003351D8B4AEEFA7F0B0EFA7F0BEEFA7F093
:104F60000A0E6525006F070E6621016FE80E026FBD
:104F7000FF0E036F32ECEAF0CAEFA7F00A0E6525C8
:104F8000006F070E6621016FF00E026FFF0E036FB8
:104F900032ECEAF00601FD0E5627FF0E57232DC610
:104FA00012F62EC613F60A0E146F070E156F56C6AC
:104FB00016F657C617F6F2ECDCF012C62DF613C63D
:104FC0002EF66BEFADF058C600F659C601F65AC67C
:104FD00002F65BC603F64CECD5F006010051011158
:104FE000D8A4F5EFA7F0F7EFA7F02CEFA8F05C51ED
:104FF000D8B4FDEFA7F0FFEFA7F008EFA8F05CC66C
:105000000AF7000E666F010E656F5607D8A05707A6
:105010003351D8B40EEFA8F010EFA8F01EEFA8F0AF
:105020000A0E6525006F070E6621016FEC0E026FF8
:10503000FF0E036F32ECEAF0CAEFA7F00A0E652507
:10504000006F070E6621016FF40E026FFF0E036FF3
:1050500032ECEAF0CAEFA7F0000E5F6F000E606F4F
:10506000800E616F3F0E626F000E4D6F000E4C6F31
:1050700058C600F659C601F65AC602F65BC603F6D4
:10508000000E046F000E056F000E066F000E076F16
:105090006CECDFF00601D8B050EFA8F052EFA8F0AA
:1050A000D7EFA8F071EFA8F05FC600F660C601F672
:1050B00061C602F662C603F6000E046F000E056FAD
:1050C000000E066F400E076FC0ECB4F000C65FF62E
:1050D00001C660F602C661F603C662F606014C4BD5
:1050E0004D2B58C619F659C61AF65AC61BF65BC69A
:1050F0001CF6000E046F000E056F000E066F400ECA
:10510000076F5FC600F660C601F661C602F662C6AA
:1051100003F6C0ECB4F000C61DF601C61EF602C6CA
:105120001FF603C620F6C4ECD3F00601D8B09BEFFF
:10513000A8F09DEFA8F054EFA8F0BDEFA8F05FC66F
:1051400000F660C601F661C602F662C603F6000EFE
:10515000046F000E056F000E066F400E076FE7EC40
:10516000B8F000C65FF601C660F602C661F603C677
:1051700062F606014C07D8A04D0758C619F659C665
:105180001AF65AC61BF65BC61CF65FC61DF660C64D
:105190001EF661C61FF662C620F6C4ECD3F0060107
:1051A000D8A0D5EFA8F0D7EFA8F09FEFA8F0EFBFF9
:1051B000DCEFA8F0DEEFA8F0E4EFA8F0EEC647F6CB
:1051C000EFC648F6E8EFA8F0000E486F4A0E476FAA
:1051D000010E4725436F000E4821446F000E646F97
:1051E000000E636F58C64EF659C64FF65AC650F6B3
:1051F0005BC651F65FC636F660C637F661C638F64E
:1052000062C639F680EFA9F04EC600F64FC601F629
:1052100050C602F651C603F65FC604F660C605F630
:1052200061C606F662C607F6E7ECB8F000C619F6E6
:1052300001C61AF602C61BF603C61CF676ECC6F0CB
:1052400019C652F61AC653F61BC654F61CC655F6B6
:1052500052C600F653C601F654C602F655C603F60A
:1052600040ECD3F000C65DF601C65EF64EC619F6F8
:105270004FC61AF650C61BF651C61CF65FC604F69A
:1052800060C605F661C606F662C607F652C600F6A7
:1052900053C601F654C602F655C603F6C0ECB4F088
:1052A00000C61DF601C61EF602C61FF603C620F68E
:1052B00040ECE9F019C64EF61AC64FF61BC650F67A
:1052C0001CC651F65FC600F660C601F661C602F65E
:1052D00062C603F6000E0601046F000E056F800E15
:1052E000066F410E076FE7ECB8F000C65FF601C627
:1052F00060F602C661F603C662F60601634B642BD4
:105300004351635D6451800A346F4451800A3459BB
:10531000D8A08DEFA9F08FEFA9F004EFA9F05FC638
:1053200000F660C601F661C602F662C603F6000E1C
:10533000046F000E056F000E066F410E076FC0EC84
:10534000B4F000C652F601C653F602C654F603C6C0
:1053500055F64EC619F64FC61AF650C61BF651C67C
:105360001CF652C61DF653C61EF654C61FF655C689
:1053700020F6C4ECD3F00601D8B0C1EFA9F0C3EF1A
:10538000A9F0CDEFA9F0000E526F000E536F000E82
:10539000546F000E556FF6EFA9F04EC600F64FC6DB
:1053A00001F650C602F651C603F652C604F653C6BD
:1053B00005F654C606F655C607F66CECDFF0060196
:1053C000D8A0E5EFA9F0E7EFA9F0F6EFA9F05DB1FD
:1053D000ECEFA9F0EEEFA9F0F6EFA9F0000E526F96
:1053E000000E536F000E546F000E556F58C600F636
:1053F00059C601F65AC602F65BC603F652C604F653
:1054000053C605F654C606F655C607F609ECB0F0C5
:1054100000C64EF601C64FF602C650F603C651F658
:1054200036C65FF637C660F638C661F639C662F62C
:10543000000E0601466F000E456F496B000E4B6F64
:10544000000E4A6F000E646F000E636F70EFABF0DA
:105450004EC600F64FC601F650C602F651C603F618
:105460005FC604F660C605F661C606F662C607F6B4
:10547000E7ECB8F000C619F601C61AF602C61BF62C
:1054800003C61CF676ECC6F019C652F61AC653F6D9
:105490001BC654F61CC655F652C600F653C601F696
:1054A00054C602F655C603F640ECD3F000C65DF6CE
:1054B00001C65EF606015D515E11D8A462EFAAF046
:1054C00064EFAAF076EFAAF046BF6BEFAAF069EF9F
:1054D000AAF076EFAAF0F0B970EFAAF072EFAAF096
:1054E00076EFAAF04A4B4B2B00EFABF04951D8A412
:1054F0007CEFAAF07EEFAAF0A6EFAAF046BF85EFF8
:10550000AAF083EFAAF0A6EFAAF00A0E6525D96EDD
:10551000070E6621DA6E2E0EDF6E654B662B560780
:10552000D8A05707010E496FA6EFAAF00A0E65250D
:10553000D96E070E6621DA6E300EDF6E654B662B74
:105540005607D8A057074A07D8A04B074A514B1116
:10555000D8A4ADEFAAF0AFEFAAF096EFAAF05EBF25
:10556000BBEFAAF05E5109E10A0E5D5DD8A0BBEF6A
:10557000AAF0BDEFAAF0C5EFAAF0570E5D255D6F4A
:10558000000E5E215E6FCBEFAAF0300E5D255D6FE1
:10559000000E5E215E6F3351D8B4D1EFAAF0D3EF85
:1055A000AAF0F3EFAAF05DC634F6200E34139F0E76
:1055B00034271A0E3461DFEFAAF0E1EFAAF0F3EF1F
:1055C000AAF05DC634F69F0E3427190E3465EBEF52
:1055D000AAF0EDEFAAF0EFEFAAF0F3EFAAF05F0E5A
:1055E0005D155D6F5E6B0A0E6525D96E070E66212F
:1055F000DA6E5DC6DFF4654B662B5607D8A05707F9
:105600004EC619F64FC61AF650C61BF651C61CF602
:105610005FC604F660C605F661C606F662C607F602
:1056200052C600F653C601F654C602F655C603F636
:10563000C0ECB4F000C61DF601C61EF602C61FF689
:1056400003C620F640ECE9F019C64EF61AC64FF62E
:105650001BC650F61CC651F65FC600F660C601F6C2
:1056600061C602F662C603F6000E0601046F000E64
:10567000056F800E066F410E076FE7ECB8F000C6AD
:105680005FF601C660F602C661F603C662F6060161
:105690004507D8A04607634B642BEFBF54EFABF030
:1056A00052EFABF070EFABF04EC600F64FC601F60E
:1056B00050C602F651C603F6000E046F000E056FC9
:1056C000000E066F000E076F6CECDFF00601D8A02D
:1056D0006CEFABF06EEFABF070EFABF08DEFABF0CB
:1056E0004351635D6451800A346F4451800A3459D8
:1056F000D8B07DEFABF07FEFABF08DEFABF066BFD6
:105700008BEFABF0665109E14B0E655DD8A08BEFD6
:10571000ABF08DEFABF028EFAAF04951D8A493EF8E
:10572000ABF095EFABF0DAEFABF04A514B11D8B4D8
:105730009CEFABF09EEFABF0DAEFABF0EFBFA9EF71
:10574000ABF0EF5108E1EE05D8A0A9EFABF0ABEF5D
:10575000ABF0DAEFABF066BFB9EFABF0665107E143
:105760004B0E655DD8B0B7EFABF0B9EFABF0DAEF49
:10577000ABF0010E496F0A0E6525D96E070E662142
:10578000DA6E2E0EDF6E654B662B5607D8A05707D4
:10579000DAEFABF00A0E6525D96E070E6621DA6ED8
:1057A000300EDF6E654B662B5607D8A057074A07A9
:1057B000D8A04B074A514B11D8B4E1EFABF0E3EF5F
:1057C000ABF0F1EFABF066BFEFEFABF0665109E184
:1057D0004B0E655DD8A0EFEFABF0F1EFABF0CAEF89
:1057E000ABF04951D8A4F7EFABF0F9EFABF00AEF0B
:1057F000ACF0F0A9FEEFABF000EFACF00AEFACF0CC
:105800000A0E6525D96E070E6621DA6E2E0EDF6E42
